:100000006F20501F130000001300000013000000B9
:100010001300000013000000130000001300000094
:100020001300000013000000130000001300000084
:08003000130000007300100032
:100038000000000000000000500700005407000006
:10004800000000003A290000000000000000000045
:100058003C2900003E2900000000000000000000CC
:1000680040290000000000004229000000000000B4
:100078004429000046290000482900004A290000B8
:100088004C2900004E290000502900005229000088
:100098005429000056290000582900005A29000058
:1000A8005C2900005E290000602900006229000028
:1000B8006429000066290000682900006A290000F8
:1000C8006C2900006E2900007029000072290000C8
:1000D8007429000076290000782900007A29000098
:1000E8007C2900007E290000802900008229000068
:1000F8008429000086290000882900008A29000038
:100108008C2900007C31000042320000E2320000FD
:100118009429000096290000982900009A290000D7
:100128009C2900009E290000A0290000A2290000A7
:10013800A4290000A6290000A8290000AA29000077
:10014800AC290000AE290000B0290000B229000047
:10015800B4290000B6290000B8290000BA29000017
:10016800BC290000BE290000C0290000C2290000E7
:10017800C4290000C6290000C8290000CA290000B7
:10018800CC290000CE290000D0290000D229000087
:10019800D4290000D6290000D8290000DA29000057
:1001A800DC290000DE290000E0290000E229000027
:1001B800E4290000E6290000E8290000EA290000F7
:1001C800EC290000EE290000F0290000F2290000C7
:1001D8000000000000000000000000000000000017
:1001E8000000000000000000000000000000000007
:0801F8000000000000000000FF
:100200003D432A876373C3029377F700BDEFADE5E3
:10021000937606FF3D8ABA960CC34CC30CC74CC7F5
:100220004107E36BD7FE11E28280B306C3408A0622
:100230009702000096966780A6002307B700A306E2
:10024000B7002306B700A305B7002305B700A30432
:10025000B7002304B700A303B7002303B700A3022A
:10026000B7002302B700A301B7002301B700A30022
:10027000B7002300B700828093F5F50F93968500B1
:10028000D58D93960501D58D61B79396270097027A
:10029000000096968682E78086FA9680C1171D8FA9
:1002A0003E96E374C3F8A5B7374500004111130526
:1002B000057706C6EF302037056513058538EF3022
:1002C0000012374500001305C577EF30C035B24046
:1002D0001305803E41016F30801001114AC8374933
:1002E00000001305097806CE22CC26CA4EC652C499
:1002F00056C2EF3040331305803EEF30400EB74911
:100300000000B7040020938589781385C40DEF3071
:10031000203223ACA184374A000083A78185B5C76A
:10032000374500001305057AEF30E02F1305803EB6
:10033000EF30E00A374900001305097BEF30A02EAB
:100340001305803EEF30A009B74900009385C97BB3
:100350001385C40DEF30C02D23ACA184374A0000B3
:1003600083A78185B1CF374500001305457DEF3068
:10037000802B6244F240D2444249B249224A924A16
:100380001305803E05616F30800513050A79EF3053
:1003900080291305803EEF308004130509782380FF
:1003A0000182EF3040281305803EEF3040039385F3
:1003B00089781385C40DEF30A02723ACA184B1BF89
:1003C00013058A7CEF3020261305803EEF30200194
:1003D0001305097B23800182EF30E0241305803E62
:1003E000EF20F07F9385C97B1385C40DEF30402447
:1003F00023ACA184B5B73755000001111305058959
:1004000006CE22CC26CA4AC84EC652C456C2EF30C7
:1004100080211305007DEF20907CB7540000370940
:1004200000209385048A1305C90DEF30602023ACAA
:10043000A184B7590000B75A000083A781859DC3E6
:10044000375500001305C58CEF30E01D6244F240C3
:10045000D2444249B249224A924A1305803E05617C
:100460006F20F0771385C98AEF30E01B1305007DFC
:10047000EF20F0761385CA8B23800182EF30A01A1B
:100480001305007DEF20B0759385048A1305C90D0F
:10049000EF30001A23ACA1844DB7797152CC375A92
:1004A000000013058A8D06D622D426D24AD04ECE1D
:1004B00056CA5AC85EC662C4EF30E0161305803EC5
:1004C000EF20F07137590000B7040020930509921E
:1004D0001385C40DEF30C01523ACA184B7590000BB
:1004E00083A78185ADCF3755000013058594EF3084
:1004F00080131305803EEF20906E375900001305DE
:10050000C995EF3040121305007DEF20506DB759AB
:1005100000009385C9971385C40DEF30601123AC9B
:10052000A184B75A0000375B0000B75B000083A7C7
:100530008185ADC3375500001305C59BEF30A00E74
:100540002254B25092540259F249624AD24A424B62
:10055000B24B224C1305803E45616F2050681385D5
:100560004993EF30400C1305803EEF205067130590
:100570008A8D23800182EF30000B1305803EEF202F
:100580001066930509921385C40DEF30600A23AC01
:10059000A184B9B79385CA981385C40DEF3040097B
:1005A00023ACA18405ED1385CB99EF30C00713056B
:1005B000007DEF20D062238001821305C995EF30C2
:1005C00080061305007DEF2090619385C997138500
:1005D000C40DEF30E00523ACA18491BF13058B9AC5
:1005E000EF30600413054006EF20705F13058A8D1D
:1005F000EF30600313054006EF20705E7DBF0111F0
:1006000026CAB75400001385849C06CE22CC4AC863
:100610004EC652C456C2EF3000011305803EEF2093
:10062000105C37590000B7090020930549A01385D5
:10063000C90DEF20F07F23ACA184375A000083A7B7
:1006400081859DC337550000130545A2EF20B07D7D
:100650006244F240D2444249B249224A924A1305C6
:10066000803E05616F20B05713054AA1EF20B07B93
:100670001305803EEF20B0561385849C23800182B1
:10068000EF20707A1305803EEF207055930549A046
:100690001385C90DEF20D07923ACA1844DB701118A
:1006A0004AC837490000AA8556C2AA8A1305097E9E
:1006B00006CE22CC26CA4EC652C45AC0B759000034
:1006C000EF20D06437040020938509871305C40DFB
:1006D000EF20107623ACA184375B000083A78185CF
:1006E00085CF3755000013054588EF20D0731305DB
:1006F0004006EF20D04E1305C40D624423800182D2
:10070000F240D2444249B249224A924A024B13066D
:10071000004081450561EDB413058B87EF20B07073
:100720001305803EEF20B04BD6851305097E23804C
:100730000182EF20B05D1305803EEF20504A938583
:1007400009871305C40DEF20B06E23ACA18479B7DF
:100750007300203001A0B7070460F91783D7270082
:100760004111C207C1832317F1000355E100410184
:100770008280411106C6B7070460239FA7FE154576
:10078000EF201043B2404101F9B703D781C6B70744
:100790000460239FE7FE8280138601C68357A6006C
:1007A0003707046013588500231FF7FE8507C2072B
:1007B00023100701C183231FF7FE1375F50F2310C4
:1007C000A7008357C60013D6850093F5F50F231FA6
:1007D000F7FE8507C2072310C700C183231FF7FE5A
:1007E0002310B70082808D6503D601C6B707046069
:1007F000138501C69385056083562500239FB7FEA8
:10080000930580062390B7008355A5007D16420608
:1008100013881500239FB7FE420823900700135842
:100820000801239F07FF1388250042082390070033
:100830004182135808018D05239F07FFC2051358F5
:10084000860023900701C181239FB7FE1376F60F20
:100850002390C7000356C500FD16C2069305160077
:10086000239FC7FEC20523900700C181239FB7FEC7
:1008700093052600C20523900700C182C1810D06A1
:10088000239FB7FE420693D586002390B70041828E
:10089000239FC7FE93F6F60F2390D700828093879D
:1008A00001C60DE99306001E2390D1C623830700DD
:1008B000130700322391E7000D67930607C02394C6
:1008C000D700930607A0130707B02395D7002396F8
:1008D000E70011BF85462383D7009306003223909B
:1008E000D1C61307001EF9B7411103D701C693877C
:1008F00001C622C403D4270026C28145AA8401452B
:100900003304E40206C6493D493581473707046090
:1009100063978700B24022449244410182802310B1
:1009200097008507F5B7317185451305001006DF7F
:1009300022DD26DB4AD94ED752D556D35AD15ECFC7
:1009400062CD66CB6AC96EC7EF20404A8545130564
:100950008006EF20804BB71401400D449167414A57
:10096000138504C08A852310F10022C252C4F17994
:10097000EF20601EE14A93873973138504408A850E
:100980002310F10056C422C2EF20E01C372501409D
:10099000930700F88A85130505802310F10056C4DB
:1009A00022C2EF20401B1385044005698A8523106D
:1009B000210156C422C2EF20001A138504401309F6
:1009C00009808A852310210122C2056952C4EF20C3
:1009D00080189305098013850440EF202024BD472B
:1009E0003ECA9167BED87C00BEDCC8003C10054BF7
:1009F000BEDE22D8CAD45AC602C802CC02D202D461
:100A000002D602DA02DC02DE82C082C282C482C660
:100A1000D2C882CA82CE82CC82D082D282D682DAF8
:100A2000EF20E00585450145EF2000111305200367
:100A3000EF20F01A0145138901C6253B2312A900B6
:100A400037040460930A300D231F54FF2933231207
:100A5000A90011332312A900FD3922052312A90090
:100A6000DD3983574900938401C65D8D2312A900A7
:100A7000231F54FFCD312312A900F1392312A900FD
:100A8000D93922052312A900F931835749005D8D18
:100A900042054181A5672312A90093871734631487
:100AA000F5006F1060419147231FF4FE6D312392D2
:100AB000A40055312392A400793922052392A40081
:100AC000593983D744005D8D42054181A167239246
:100AD000A400938727556319F5009D67938797783E
:100AE0002392F4006F10403D9D6B93879B786314B5
:100AF000F5006F10603C9307400D231FF4FEA139F1
:100B00002392A40089392392A400B13122052392B3
:100B1000A400913183D7440015695D8D4205418160
:100B20002392A400930709316314F5006F10C038B5
:100B3000231F54FF0D312392A40031392392A400C6
:100B4000193922052392A400393183D74400938BAD
:100B50006B795D8D420541812392A4006314750178
:100B60006F108035FD77231FF4FE130AE4FF13078F
:100B700050052311EA0013871700231FE4FE130713
:100B8000A00A2311EA0013872700231FE4FE13079E
:100B900020052311EA0013873700231FE4FE2147B5
:100BA0002311EA009107231FF4FE23116A019387A2
:100BB0000950231FF4FE453622052392A400938991
:100BC0001950231F34FF413E83D744009309095134
:100BD0005D8D2392A4001545EF20700083D744005B
:100BE000638437016F104035370404607D789307C4
:100BF000E4FF231F04FF930E50052391D701130731
:100C00001800231FE4FE1307A00A2391E7009306B0
:100C10002800231FD4FE930620052391D700130636
:100C20003800231FC4FE214E2391C701130648003C
:100C3000231FC4FE05462391C7006D77231FE4FEE2
:100C4000B5462391D70093051700231FB4FE2391C7
:100C5000D70093052700231FB4FE6D752391D7009D
:100C60009305056013084003231FB4FE2391070179
:100C700093051760231FB4FE239107019305276096
:100C8000231FB4FE2391070193050510231FB4FE13
:100C90002391D70093051510231FB4FE2391D7008D
:100CA00093052710231FB4FE2391D70093050570E9
:100CB000231FB4FE2391070193051570231FB4FE73
:100CC0002391070193062770231FD4FE2391070168
:100CD00093060720231FD4FE2391070093061720B5
:100CE000231FD4FE2391070093062720231FD4FE41
:100CF00071732391070093050380231FB4FE9306AD
:100D000040022391D70093051380231FB4FE239143
:100D1000D70093052380231FB4FE71752391D7005C
:100D2000930505F0231FB4FE2391C70093050730F8
:100D3000231FB4FEBD452391B70093081730231F2E
:100D400014FF2391B70093082730231F14FF23912A
:100D5000B70093050590231FB4FE23910701930567
:100D60001590231FB4FE2391070193052590231F9F
:100D7000B4FE2391070193050750231FB4FE23916E
:100D8000C70193051750231FB4FE2391C701130712
:100D90002750231FE4FE130705202391C7018D452B
:100DA000231FE4FE2391B700130705A0231FE4FED1
:100DB0002391D700130715A0231FE4FE2391D7002A
:100DC000130725A0231FE4FE2391D700930F03C030
:100DD000231FF4FF23910700930F13C0231FF4FF79
:100DE000130780072391E700930F23C0231FF4FF0D
:100DF00023910700930605D0231FD4FE23910700FB
:100E0000930615D0231FD4FE2391E700130725D0A6
:100E1000231FE4FE23910700130705E0231FE4FED0
:100E200023910700130715E0231FE4FE1307400674
:100E30002391E700757793060710231FD4FE2391B3
:100E400007009306171093083003231FD4FE239145
:100E5000170193062710231FD4FE23910700930642
:100E60003710231FD4FE2391070193064710231F39
:100E7000D4FE2391070093065710231FD4FE130DB1
:100E8000A0032391A70193066710231FD4FE23918B
:100E9000070093067710231FD4FE930CA004239120
:100EA000970193068710231FD4FE23910700930612
:100EB0009710231FD4FE130CC005239187019306BE
:100EC000A710231FD4FE239107009306B710231FFA
:100ED000D4FE930B1008239177019306C710231FAC
:100EE000D4FE239107009306D710231FD4FE130BC3
:100EF000600A239167019306E710231FD4FE239114
:100F000007009306F710231FD4FE930A500E239177
:100F1000570193060711231FD4FE2391C7009306A0
:100F20001711231FD4FE4D4A239147019306271121
:100F3000231FD4FE2391C700930637119309400560
:100F4000231FD4FE2391370193064711231FD4FE9C
:100F5000930657112391C70013092008231FD4FEBD
:100F60002391270193066711231FD4FE2391C70005
:100F700093067711231FD4FE9300A00C2391170032
:100F800093068711231FD4FE89462391D7001303AC
:100F90009711231F64FE239107001303A711231F3A
:100FA00064FE2391D7001303B711231F64FE23911E
:100FB000C7001303C711231F64FE2391D700130337
:100FC000D711231F64FE239107011303E711231F89
:100FD00064FE2391D7001303F711231F64FE9303CC
:100FE00070062391770013030712231F64FE2391D9
:100FF000D70013031712231F64FE930240082391A6
:10100000570013032712231F64FE2391D7001303F5
:101010003712930F400A231F64FE2391F701130335
:101020004712231F64FE130F700B2391D700130385
:101030005712231F64FE2391E70113036712231F36
:1010400064FE2391D70013037712231F64FE930ECF
:10105000F00C2391D70113038712231F64FE239101
:10106000D70013039712231F64FE130EE00D239184
:10107000C7011303A712231F64FE2391D700130394
:10108000B712231F64FE1303200F23916700930DF3
:10109000C712231FB4FF2391D700930DD712231F2C
:1010A000B4FF930DE00F2391B701930DE712231FB7
:1010B000B4FF2391B700930DF712231FB4FFC14D66
:1010C0002391B701930D0713231FB4FF2391B7009A
:1010D000930D1713231FB4FF23911701930D2713AB
:1010E000231FB4FF2391B700930D3713231FB4FFC1
:1010F000930DD0062391B701930D0720231FB4FF52
:1011000023910700930D1720231FB4FF930D272071
:1011100023911701231FB4FF23910700930D37205C
:10112000231FB4FF23910701930D4720231FB4FF12
:1011300023910700930D5720231FB4FF2391A7018C
:10114000930D6720231FB4FF23910700930D772091
:10115000231FB4FF23919701930D8720231FB4FF12
:1011600023910700930D9720231FB4FF239187013C
:10117000930DA720231FB4FF23910700930DB720E1
:10118000231FB4FF23917701930DC720231FB4FFC2
:1011900023910700930DD720231FB4FF23916701EC
:1011A000930DE720231FB4FF23910700930DF72031
:1011B000231FB4FF23915701930D0721231FB4FF71
:1011C0002391C700930D1721231FB4FF23914701DB
:1011D000930D2721231FB4FF2391C700930D3721BF
:1011E000231FB4FF23913701930D4721231FB4FF21
:1011F0002391C700930D5721231FB4FF239127018B
:10120000930D6721231FB4FF2391C700930D77210E
:10121000231FB4FF23911700930D8721231FB4FFD1
:101220002391D700930D9721231FB4FF239107002B
:10123000930DA721231FB4FF2391D700930DB7214E
:10124000231FB4FF2391C700930DC721231FB4FFB1
:101250002391D700930DD721231FB4FF23910701BA
:10126000930DE721231FB4FF2391D700930DF7219E
:10127000231FB4FF23917700930D0722231FB4FF90
:101280002391D700930D1722231FB4FF23915700FA
:10129000930D2722231FB4FF930D37222391D700EC
:1012A000231FB4FF2391F701930D4722231FB4FF9F
:1012B0002391D700930D5722231FB4FF2391E701F9
:1012C000930D6722231FB4FF2391D700930D77223C
:1012D000231FB4FF2391D701930D8722231FB4FF4F
:1012E0002391D700930D9722231FB4FF2391C701A9
:1012F000930DA722231FB4FF2391D700930DB7228C
:10130000231FB4FF23916700930DC722231FB4FF4F
:101310002391D700930DD722231FB4FF930DE00F25
:101320002391B701930DE722231FB4FF2391B70048
:10133000930DF722231FB4FFC14D2391B701930DE5
:101340000723231FB4FF2391B700930D1723231FF7
:10135000B4FF23911701930D2723231FB4FF23917B
:10136000B700930D3723231FB4FF930DD0062391AD
:10137000B701930D0730231FB4FF23910700930D8E
:101380001730231FB4FF23911701930D2730231F1C
:10139000B4FF23910700930D3730231FB4FF23912F
:1013A0000701930D4730231FB4FF23910700930DCE
:1013B0005730231FB4FF2391A701930D6730231FDC
:1013C000B4FF23910700930D7730231FB4FF2391BF
:1013D0009701930D8730231FB4FF23910700930DCE
:1013E0009730231FB4FF23918701930DA730231F4C
:1013F000B4FF23910700930DB730231FB4FF23914F
:101400007701930DC730231FB4FF23910700930D7D
:10141000D730231FB4FF23916701930DE730231FBB
:10142000B4FF23910700930DF730231FB4FF930DF2
:10143000073123915701231FB4FF2391C700930D58
:101440001731231FB4FF23914701930D2731231F29
:10145000B4FF2391C700930D3731231FB4FF2391AD
:101460003701930D4731231FB4FF2391C700930D1C
:101470005731231FB4FF23912701930D6731231F99
:10148000B4FF2391C700930D7731231FB4FF23913D
:101490001700930D8731231FB4FF2391D700930DBD
:1014A0009731231FB4FF23910700930DA731231F0A
:1014B000B4FF2391D700930DB731231FB4FF2391BD
:1014C000C700930DC731231FB4FF2391D700930D9D
:1014D000D731231FB4FF23910701930DE731231F59
:1014E000B4FF2391D700930DF731231FB4FF23914D
:1014F0007700930D0732231FB4FF2391D700930D7C
:101500001732231FB4FF23915700930D2732231F57
:10151000B4FF2391D700930D3732231FB4FF2391DB
:10152000F701930D4732231FB4FF2391D700930D8A
:101530005732231FB4FF2391E701930D6732231F16
:10154000B4FF2391D700930D7732231FB4FF23916B
:10155000D701930D8732231FB4FF2391D700930D3A
:101560009732231FB4FF2391C701930DA732231F86
:10157000B4FF2391D700930DB732231FB4FF2391FB
:101580006700930DC732231FB4FF2391D700930D3B
:10159000D732231FB4FF930DE00F2391B701930DB2
:1015A000E732231FB4FF2391B700930DF732231FB7
:1015B000B4FFC14D2391B701930D0733231FB4FF2F
:1015C000930D17332391B700231FB4FF2391170105
:1015D000930D2733231FB4FF2391B700930D3733A7
:1015E000231FB4FF930DD0062391B701930D07403D
:1015F000231FB4FF23910700930D1740231FB4FF4F
:1016000023911701930D2740231FB4FF2391070057
:10161000930D3740231FB4FF23910701930D4740DB
:10162000231FB4FF23910700930D5740231FB4FFDE
:101630002391A701930D6740231FB4FF2391070057
:10164000930D7740231FB4FF23919701930D87409B
:10165000231FB4FF23910700930D9740231FB4FF6E
:1016600023918701930DA740231FB4FF2391070007
:10167000930DB740231FB4FF23917701930DC7400B
:10168000231FB4FF23910700930DD740231FB4FFFE
:1016900023916701930DE740231FB4FF23910700B7
:1016A000930DF740231FB4FF23915701930D07417A
:1016B000231FB4FF2391C700930D1741231FB4FFCD
:1016C00023914701930D2741231FB4FF2391C700A6
:1016D000930D3741231FB4FF23913701930D4741E9
:1016E000231FB4FF2391C700930D5741231FB4FF5D
:1016F00023912701930D6741231FB4FF2391C70056
:10170000930D7741231FB4FF23911700930D874159
:10171000231FB4FF2391D700930D9741231FB4FFDC
:1017200023910700930DA741231FB4FF2391D700F6
:10173000930DB741231FB4FF2391C700930DC741F9
:10174000231FB4FF2391D700930DD741231FB4FF6C
:10175000930DE74123910701231FB4FF2391D70085
:10176000930DF741231FB4FF23917700930D074298
:10177000231FB4FF2391D700930D1742231FB4FFFB
:1017800023915700930D2742231FB4FF2391D700C5
:10179000930D3742231FB4FF2391F701930D474266
:1017A000231FB4FF2391D700930D5742231FB4FF8B
:1017B0002391E701930D6742231FB4FF2391D700C4
:1017C000930D7742231FB4FF2391D701930D8742D6
:1017D000231FB4FF2391D700930D9742231FB4FF1B
:1017E0002391C701930DA742231FB4FF2391D70074
:1017F000930DB742231FB4FF23916700930DC74297
:10180000231FB4FF2391D700930DD742231FB4FFAA
:10181000930DE00F2391B701930DE742231FB4FF0F
:101820002391B700930DF742231FB4FFC14D2391BD
:10183000B701930D0743231FB4FF2391B700930D06
:101840001743231FB4FF23911701930D2743231F31
:10185000B4FF2391B700930D3743231FB4FF930DBB
:10186000D0062391B701930D0750231FB4FF239196
:101870000700930D1750231FB4FF23911701930DF9
:101880002750231FB4FF23910700930D3750231FC8
:10189000B4FF23910701930D4750231FB4FF2391F9
:1018A0000700930D5750231FB4FF2391A701930DF9
:1018B0006750231FB4FF23910700930D7750231F18
:1018C000B4FF23919701930D8750231FB4FF2391F9
:1018D0000700930D9750231FB4FF23918701930DA9
:1018E000A750231FB4FF930DB75023910700231F68
:1018F000B4FF23917701930DC750231FB4FF2391A9
:101900000700930DD750231FB4FF23916701930D58
:10191000E750231FB4FF23910700930DF750231FB7
:10192000B4FF23915701930D0751231FB4FF239157
:10193000C700930D1751231FB4FF23914701930D47
:101940002751231FB4FF2391C700930D3751231F45
:10195000B4FF23913701930D4751231FB4FF239107
:10196000C700930D5751231FB4FF23912701930DF7
:101970006751231FB4FF2391C700930D7751231F95
:10198000B4FF23911700930D8751231FB4FF2391B8
:10199000D700930D9751231FB4FF23910700930D98
:1019A000A751231FB4FF2391D700930DB751231FD5
:1019B000B4FF2391C700930DC751231FB4FF239198
:1019C000D700930DD751231FB4FF23910701930D27
:1019D000E751231FB4FF2391D700930DF751231F25
:1019E000B4FF23917700930D0752231FB4FF239177
:1019F000D700930D1752231FB4FF23915700930D67
:101A00002752231FB4FF2391D700930D3752231F72
:101A1000B4FF2391F701930D4752231FB4FF239185
:101A2000D700930D5752231FB4FF2391E701930D65
:101A30006752231FB4FF2391D700930D7752231FC2
:101A4000B4FF2391D701930D8752231FB4FF239135
:101A5000D700930D9752231FB4FF2391C701930D15
:101A6000A752231FB4FF2391D700930DB752231F12
:101A7000B4FF930DC75223916700231FB4FF239136
:101A8000D700930DD752231FB4FF930DE00F23917E
:101A9000B701930DE752231FB4FF2391B700930DB5
:101AA000F752231FB4FFC14D2391B701930D075384
:101AB000231FB4FF2391B700930D1753231FB4FFC7
:101AC00023911701930D2753231FB4FF2391B700D0
:101AD000930D3753231FB4FF930DD0062391B70105
:101AE000930D0760231FB4FF23910700930D176028
:101AF000231FB4FF23911701930D2760231FB4FF09
:101B000023910700930D3760231FB4FF2391070132
:101B1000930D4760231FB4FF23910700930D576077
:101B2000231FB4FF2391A701130D6760231FA4FF98
:101B300023910700130D7760231FA4FF23919701C2
:101B4000930C8760231F94FF23910700930C9760E9
:101B5000231F94FF23918701130CA760231F84FF89
:101B600023910700130CB760231F84FF2391770193
:101B7000930BC760231F74FF23910700930BD7605B
:101B8000231F74FF23916701130BE760231F64FF7A
:101B900023910700130BF760231F64FF2391570164
:101BA000930A0761231F54FF2391C700930A17610B
:101BB000231F54FF23914701130A2761231F44FF6A
:101BC0002391C700130A3761231F44FF2391370174
:101BD00093094761231F34FF2391C700930957617D
:101BE000231F34FF2391270113096761231F24FF5B
:101BF0002391C70013097761231F24FF2391170046
:101C000093008761231F14FE930097612391D700EF
:101C1000231F14FE239107009300A761231F14FEC6
:101C20002391D7009300B761231F14FE2391C700AF
:101C30009300C761231F14FE2391D7009300D7613F
:101C4000231F14FE239107011308E761231F04FFDC
:101C50002391D7001308F761231F04FF2391770016
:101C600013080762231F04FF2391D700130817628C
:101C7000231F04FF2391570013082762231F04FF2B
:101C80002391D70013083762231F04FF2391F70124
:101C900013084762231F04FF2391D70013085762DC
:101CA000231F04FF2391E70113086762231F04FF2A
:101CB0002391D70013087762231F04FF2391D701D4
:101CC00013088762231F04FF2391D700130897622C
:101CD000231F04FF2391C7011308A762231F04FFDA
:101CE0002391D7001308B762231F04FF23916700D5
:101CF0001308C762231F04FF2391D7001308D7627C
:101D0000231F04FF930DE00F2391B7011308E7622F
:101D1000231F04FF2391B7001308F762231F04FF5A
:101D2000C14D2391B70113080763231F04FF2391BB
:101D3000B70013081763231F04FF2391170113082B
:101D40002763231F04FF2391B70013083763231F62
:101D500004FF930DD0062391B7017D78231F04FF64
:101D6000930E50052391D701930F1800231FF4FF02
:101D7000130FA00A2391E701930F2800231FF4FFFC
:101D8000130F20052391E701130F3800231FE4FFF1
:101D9000214E2391C7011108ED78231F04FF2391E1
:101DA000070013880810231F04FF1308C00C239199
:101DB000070113881810231F04FF239107001388BD
:101DC0000860231F04FF154823910701138808703A
:101DD000231F04FF1308000723910701938818703D
:101DE000231F14FF71732391070113080380231F1E
:101DF00004FF2391C70013081380231F04FF2391BE
:101E0000B70013082380231F04FF2391B700130595
:101E10003580231FA4FE2391B700930503C0231F21
:101E2000B4FE2391D700930513C0231FB4FE239162
:101E30000700130623C0231FC4FE239107001306C7
:101E40000790231FC4FE1306000D2391C70013063D
:101E50001790231FC4FE2391D70093062790231FBA
:101E6000D4FE930600052391D70013063790231F55
:101E7000C4FE2391D70013074790231FE4FE0D698A
:101E80002391D70013070950231FE4FE1167239104
:101E90000700130707A0231FE4FE2391D7018567DE
:101EA00093870710231FF4FE130580071309099079
:101EB000EF100050231F24FF03D74400A56793872A
:101EC00017346300F702ED77938707CFBA9793F73C
:101ED000F7DFC207C18391C7896793873796631F6E
:101EE000F700C2577D771307F70FF98F225793E753
:101EF00007403ED8419B136747003AD40545EFE0C1
:101F00001F9A371501409165130505C0EF00D050A9
:101F100021651305C5D7EFE03F9DFA506A54DA54A6
:101F20004A59BA592A5A9A5A0A5BFA4B6A4CDA4CFD
:101F30004A4DBA4D29618280231F54FFEFE0BF81D3
:101F40002392A400EFE03F812392A400EFE0BF8042
:101F500022052392A400EFE01F8083D744005D8D0B
:101F600042054181A9672392A40093876780E30516
:101F7000F5F49307100A231FF4FEEFE0CFFD239240
:101F8000A400EFE04FFD22052392A400EFE0AFFC98
:101F900083D74400130919765D8D42054181239250
:101FA000A400631725018967938737966FE05FB3B5
:101FB000631435016FE05FC301B7138701C6835611
:101FC0004700156713070751938701C66396E60418
:101FD00003D7A700B706046093588500239FE6FE49
:101FE00005074207239016014183239FE6FE1375E0
:101FF000F50F2390A60003D7C70013D5850093F5EE
:10200000F50F239FE6FE050742072390A6004183B4
:10201000239FE6FE2390B60083D68700B7070460AF
:10202000239FD7FE2390C70082801D7193F776000F
:102030006AD8B337F0002E8D93D53600AE9793D57E
:102040001600B387B702A2CC130406FE1374F40F74
:102050003146A6CA93044002CAC8CEC6D2C493F77A
:10206000F70F3EC6931764003ECA931744003EC85C
:10207000B307C402D6C219699569156A956A5EDE0E
:1020800062DC66DA86CEB3049402DAC06ED6AA8C1D
:102090003EC46A8C814B1309491F93898949130AED
:1020A0008AEA938A4AA3B24713F6FB0F6361F602EA
:1020B000F6406644D6444649B649264A964A064BF7
:1020C000F25B625CD25C425DB25D2561828031462A
:1020D000639EC606A2473386FB005696930E8C007D
:1020E00003440600939D0E0193DD0D011316840138
:1020F00061866355060803D68181E28566853ACEFE
:1021000036CC653DE246724793071C00139C0701DD
:10211000938701C603D6270013181400135C0C0123
:102120001374F80FE376CCF83306AC416315D6068A
:1021300013831C0083D701C6931C030193DC0C019D
:10214000E3F8FCF6EA8D850B6E8CB1BF41466397D0
:10215000C600C2473386FB00529649B76146639674
:10216000C60033869B004E9695BF13060002E3918E
:10217000C6F4D2473386FB004A968DB751F7B707AE
:10218000002003D60708E28566853ACE36CC353581
:102190007247E24695BFE39B8DF575B739712A9674
:1021A000AE964AD84ED6131906019399060122DC41
:1021B00026DA52D456D25AD05ECE06DEAE841359F9
:1021C000090193D909013A8A135B17002A84930AFB
:1021D000E005937BF50F03C60700130706FE137790
:1021E000F70F63FDEA00F2506254D2544259B259DB
:1021F000225A925A025BF24B21618280636624016B
:10220000D294C2045E84C1803EC6E3FE34FD2285C2
:102210000547D286A685113DB2475A9442044180B3
:10222000850755BF797126D24AD0B384B6403309A9
:10223000A640050985044209C20422D44ECE52CCE0
:1022400056CA06D6AA892E8A13590901C1800144AB
:10225000B70A0460636B9400B2502254925402593E
:10226000F249624AD24A45618280B3054401C205FF
:10227000C1814E853AC6EFE02FD2EFE00FD1324751
:10228000814763E62701050442044180E1B78507E1
:10229000C2072390EA00C183EDB7397122DC26DA48
:1022A0005AD05ECE66CA06DE4AD84ED652D456D230
:1022B00062CC6AC86EC63304A6402A8BAE8CB38447
:1022C000B640854B63478000814B01C43304C54051
:1022D000FD5B054C63479000014C81C4B384D5403D
:1022E0007D5C2289635394002689416D814A014AAD
:1022F0008149930D19007D1D63D13D03F250625455
:10230000D2544259B259225A925A025BF24B624C51
:10231000D24C424DB24D2161828093950C01131530
:102320000B016A86C1814181229A4139A69A63557F
:102330004901330A2A415E9B63555901B38A2A41F8
:10234000E29C8509C20993D909017DB7011122CC0C
:102350003684AE8606CE26CA4AC84EC62A89B289B7
:10236000AE84253FA2864A86A6854A853D37A28649
:102370004E86A2854A851537A2866244F2404249BC
:102380004E86A6854E85D244B249056139B75D7146
:10239000A2C44EDE931716008D49416452DC56DA12
:1023A0005AD85ED686C6A6C2CAC062D466D26AD0E1
:1023B0006ECE2A8BAE8BB28AB389F940014A7D1466
:1023C00013190A0193940A0113590901C180B30733
:1023D0006901B38C9B40C207C20CC18393DC0C0122
:1023E000B38D6401338C2B413E852286E685C20D78
:1023F000420C3EC693DD0D01C936135C0C01330D52
:1024000079016E852286E285420D453E135D0D0100
:102410006E852286EA855536B247B38D7401C20DAA
:1024200093DD0D0133092B413E852286EE8542095D
:10243000693613590901B3049B402286EE854A850B
:10244000C204A53EC1802286EA852685BD36228645
:10245000E6854A859D362286E2852685B93E050AAF
:1024600063D7090293172A009907BE99E3DA4AF560
:10247000B640264496440649F259625AD25A425B03
:10248000B25B225C925C025DF24D61618280B307B7
:102490005A418A07A907BE99FD1AC9BF011185458E
:1024A000114506CE22CC02C202C402C6EF00F015CE
:1024B000E1772312F10037140140C1473EC64C00BA
:1024C0008D47130504803EC4792513050480A1655A
:1024D000EF008074F2406244056182804111094539
:1024E00006C622C4EF00C073792EEF00D069EF005A
:1024F000D02F716513050520EF005071371401408E
:10250000713F693FA16513050480EF002071130539
:102510004006EF00D06C13050480A165F52DEFE0B7
:102520008FC01520EFD05FD8EFD03FDBEFD0BFECEE
:10253000EFD0BFF6EFE0AF8C378500001305459B69
:10254000EFE0EF9501A04111014506C622C4EFE07E
:10255000AFB97D57239CE18021671307074393069A
:10256000801C1306802FE145130580026539930610
:10257000801C5146E14551450D339306C01D13069D
:10258000802F9305C01D13058002013B9146130661
:10259000802F91451305800209339306801C130692
:1025A000C030E1451305C030CD399306801C1306B9
:1025B000802FE14513058002513B5146E14513054B
:1025C0008002F13351469305801C13058002C1330C
:1025D00051469305801C1305802F553B5146E1451C
:1025E0001305802F6D33B78700009387879B1307F0
:1025F00000029306000213060012930580021305E1
:10260000A00F693E3164130784619306E01113063D
:10261000E0109305600A1305C00329311307846194
:102620009306E0111306901F9305600A13057012BC
:10263000D53E130784619306E0111306402E9305DF
:10264000600A13052021F93E130784619306F01AEE
:102650001306E010930570131305C003E13613074A
:1026600084619306F01A1306901F930570131305E7
:1026700070124D3E130784619306F01A1306402E24
:102680009305701313052021713EB78700009387CF
:10269000C79C130700029306000213060007930568
:1026A000800C13054006EFF07FAFB78700009387DB
:1026B000479D1307000293060002130600079305C7
:1026C000800C13050014EFF07FADB78700009387EF
:1026D000079E1307000293060002130600079305E6
:1026E000800C1305A023EFF07FAB37840000930725
:1026F000849E130700029306000213060007930549
:10270000000F13058025EFF07FA9B787000093879E
:10271000079F1307000293060002130600079305A4
:10272000901513054006EFF07FA79307849E1307CB
:102730000002930600021306000793051018130504
:102740002008EFF0BFA5B78700009387C79F130746
:102750000002930600021306000793059015130567
:102760000014EFF0BFA32244B240B7870000938764
:1027700047A0130700029306000213060007930503
:1027800090151305A02341016FF05FA1B717024018
:102790009843B706FFF841111367170098C3D84351
:1027A00037060200758FD8C39843B706F7FEFD16AB
:1027B000758F98C39843B706FCFFFD16758F98C3B5
:1027C000D843B70681FFFD16758FD8C39843B70667
:1027D00000ECFD16758F98C33707FF0098C723A636
:1027E000070202C402C69843C166558F98C3B71644
:1027F000024005679C42F18F3EC6A24785073EC452
:10280000B24781E7A247E397E7FEB71702409C4330
:102810001397E7006357070685473EC6324785474B
:10282000631FF704B7170240D843B706C1FFFD1670
:10283000D8C3D843D8C3D84313670740D8C3D843B5
:10284000758FD8C3D843B7061D00558FD8C398439A
:10285000B7060001558F98C3984393166700E3DDD0
:1028600006FED843B7160240719BD8C3D8431367FE
:102870002700D8C32147DC42B18BE39EE7FE41012C
:10288000828002C661BF371602405C429146B18B1E
:10289000138741806385D700A1466389D702B717A4
:1028A0007A00938707201CC3B7170240DC4391834B
:1028B00093F6F700B707002093870700B69783C603
:1028C00007001C43B3D7D7001CC382805442504238
:1028D000C167C982BD8A7D8E9387260085CABD46A1
:1028E0006389D702C1466389D702C5458146639390
:1028F000B700C1470DE637163D0013060690B387B3
:10290000C7021CC3D5D21C43858371BF8146C9470A
:10291000D5B78546B547F9BF8146BD47E1BF3716F4
:10292000024050429315E600E3C705FC37167A00D3
:1029300013060620E9B701A001A001A001A001A093
:1029400001A001A001A001A001A001A001A001A07F
:1029500001A001A001A001A001A001A001A001A06F
:1029600001A001A001A001A001A001A001A001A05F
:1029700001A001A001A001A001A001A001A001A04F
:1029800001A001A001A001A001A001A001A001A03F
:1029900001A001A001A001A001A001A001A001A02F
:1029A00001A001A001A001A001A001A001A001A01F
:1029B00001A001A001A001A001A001A001A001A00F
:1029C00001A001A001A001A001A001A001A001A0FF
:1029D00001A001A001A001A001A001A001A001A0EF
:1029E00001A001A001A001A001A001A001A001A0DF
:1029F00001A001A097E1FF1F9381C1E817510020BA
:102A000013014160175500001305C50B97D5FF1F33
:102A10009385455F1386818163FAC5008322050093
:102A200023A0550011059105E3EAC5FE13858181B8
:102A3000938541C76377B500232005001105E36D39
:102A4000B5FEFD42739002BCFD4273904280B762B6
:102A500000009382820873A0023097D2FFFF938216
:102A6000E25D93E2320073905230EFF03FD2970272
:102A700000009382E2A67390123473002030144554
:102A80005C4158450328C502D58FD98F18493706B0
:102A900000A0D98F5849D98F184DD98F584DD98F4B
:102AA0001851D98F5851D98F1855D98F1859B3E764
:102AB0000701D98F18410A073A961CC2A1476396AD
:102AC000F6001C4293E707041CC254598C4E9C42EA
:102AD000CD8FCC429205CD8F8C46A205CD8FCC46B2
:102AE000C205CD8F8C4AD44AD205CD8FE206D58F50
:102AF0005CC291676319F802145D904E9C42D18FBD
:102B0000D0421206D18F90462206D18F904AD44AE5
:102B10005206E206D18FD58FB70600A093864610E5
:102B200036971CC38280B70700A0938747103E9753
:102B3000B7070010FD17F5B7B70700A00A053E95C7
:102B40001C4189C593E717001CC18280370710001C
:102B50007917F98FD5BF9C4513F7070113F8F700D4
:102B600001C7D8413368E80083D5050013F7F50F96
:102B700039C318418146854E3D4F930F8002930221
:102B80008004214E3396DE00B3F8C50063111603AE
:102B90009398260033131F011343F3FF3377E300A9
:102BA000B318180133E7E800639FF70550C985069D
:102BB000E39AC6FD18C11307F00F6375B7045441BB
:102BC0002146854E3D4F930F800293028004414E73
:102BD000B398CE0033F715016392E802131726006D
:102BE00001173313EF001343F3FFB376D30033170A
:102BF000E800D98E639DF701232A15010506E31924
:102C0000C6FD54C18280E39457FA10C94DB7E397CB
:102C100057FE23281501DDB70CC982804CC982807C
:102C200023AEA18082809387C1819443034705002E
:102C300089E683472500920731A8944305466391AE
:102C4000C604834725000346150092076314D60087
:102C500093E707F8B7E600E093F7F70FBA962380FB
:102C6000F6408546935757003397E6005441ADC66A
:102C7000938707048A07B7E600E0B69798C3828077
:102C80008C4389466393D50283461500834725000C
:102C90006365D6008A06B69779BF9386E6038A06EF
:102CA000B69793F7F70F920765B790438D46631E6B
:102CB000D60083461500834725006364D600860648
:102CC000D9BF9386C6078606E1BF94439147E39A2E
:102CD000F6F88347150085B79387070661BF371756
:102CE00002405C439146B18B6385D700A146638661
:102CF000D706B7177A00938707201CC13716024002
:102D00005C4237070020130707019183BD8BBA97F8
:102D100083C607001C41B3D7D7005CC15442A182CF
:102D20009D8ABA9683C60600B3D6D70014C554420E
:102D3000AD829D8A369703470700B3D7E7005CC58D
:102D4000584239839376370013878180369703473B
:102D50000700B3D7E7021CC982805C435443416734
:102D6000C983F98E37F7FF1F0327C770BD8B89070B
:102D70001316170163480600454601476392C702D0
:102D8000C94739A809476389E7023D476388E702D5
:102D900041476388E702454601476393C700C1473F
:102DA00085E6B746024083A60680C18A8DC6B7165F
:102DB0007A009386062025A00147D9B70547B54775
:102DC000C5B70147BD47E9BFB7160240D4421396C5
:102DD000E600E35E06FCB7163D0093860690B387D7
:102DE000D7021CC101DF1C41858301BF99C537177C
:102DF00002405C4B5D8D48CB8280B7170240D84BB8
:102E00001345F5FF798DC8CB828099C537170240ED
:102E10001C4F5D8D08CF8280B7170240984F134535
:102E2000F5FF798D88CF828099C5371702405C4FB6
:102E30005D8D48CF8280B7170240D84F1345F5FF0C
:102E4000798DC8CF828083560501F577FD17F58F00
:102E500083D66500397122DC06DED58F03D7C50025
:102E60002318F5008356C500FD779387379FF58FAC
:102E700083D645002A842EC6D58F83D68500D58F6C
:102E800083D6A500D58F2316F50083574501C207C9
:102E9000C18393F7F7CFD98F231AF50068088135DE
:102EA000B747014093870780B245631EF404A257D9
:102EB0008356C4006547B387E702C206C1869841BE
:102EC00063D5060406070356C4004206B3D7E702DB
:102ED000130740064186B3D6E702B3F7E70292062E
:102EE000635706028E0793872703B3D7E70213F7CA
:102EF0007700B367D700C207C1832314F400F250F0
:102F0000625421618280925765B70A076DBF9207AC
:102F100093872703B3D7E702BD8BD58FE9BF81C95C
:102F20008357C5000967D98F2316F50082800357A0
:102F3000C500F977FD17F98FC5BF13F7F50F854762
:102F40001583B395B7006319F7009307C50098433D
:102F500001CED98D8CC38280894693074501E31841
:102F6000D7FE93070501E5B793C5F5FFF98DDDB7EA
:102F700093F5F51F2312B5008280035545001375A4
:102F8000F51F8280035505006D8D3335A0008280CA
:102F900013F7F50F85461583B397B6006313D70271
:102FA0000357C500F98F03570500014542074183C8
:102FB00081CB0545A181B315B5006D8F3335E00098
:102FC000828089466315D70003570501E1BF035787
:102FD0004501C9BFA1818547B397B70093C7F7FFE4
:102FE000C207C1832310F5008280757185451145A4
:102FF00006C722C526C34AC1CEDE013D854521450F
:103000002935854541451135854537050600293D5A
:1030100085451165DD3B371401400D4993070020BC
:10302000E1496C0813050480231EF1004AD04ED2FA
:10303000EFF07FB29144930700406C0813050480C1
:10304000231EF10026D2EFF01FB12C1013050480CF
:10305000231491024AD64ED8EFF0FFAFA1472C10AF
:10306000130504802314F10226D8EFF0DFAE856744
:10307000938707804C18130504C0231AF1024ADC19
:1030800026DE37490040EFF01FAD716413040420C1
:10309000B7040C008C0813050940B7490140A2C8C9
:1030A000A6CC82CA231E0104793B8C0013850980BB
:1030B000A2C0A6C482C2B7540040231601046133E3
:1030C0008C10B707040013850480A2D0BED482D22E
:1030D000231601068D3B9307501305442312F1007C
:1030E000480085472303F10022C4EFF0DFB39307C4
:1030F000601368002316F1002307810022C8EFF057
:103100009FB2930770134808231AF100230B810024
:1031100022CCEFF05FB1138509800546930550522C
:10312000293D13050940054693055052393505469A
:103130001385048093055052093513850980854510
:10314000F93B130509408545D93B13850480854526
:10315000F933BA402A449A440A49F65949618280AF
:10316000411122C406C62A84213593050008228510
:10317000113D65DDB240224441018280411122C6E9
:1031800037440140930550521305048026C44AC2B7
:10319000013555C113050480CD339307F5F9139715
:1031A00007014183D147AA8463ECE706B707120001
:1031B000B507B3D7E700858BA5C703C73182FD47A5
:1031C0001384318263EBE700930717002300F400B8
:1031D00093870183BA972380A70003470400914790
:1031E00063F0E704B785000015469385C5A01385F5
:1031F0000183D52C15E5416513050580EFD0CFEE91
:103200009387018313070002930600021306000749
:103210009305A00A1305A00AEFE05FF8230004005D
:1032200037540040A6851305048099339305505206
:103230001305048045333244A2441249410173000E
:103240002030411122C637440040930550521305E7
:10325000044026C44AC24EC0253B938401820DC55A
:103260009305505213050440B53313050440313320
:1032700003C70400B70700209387C70DBA97050757
:103280002380A7002380E40037850000130545A1B3
:1032900037090020B749004079261309C90DA380DA
:1032A000018293890940138411828347040003C774
:1032B000040063EDE700230004003244238004008F
:1032C0001249A2448249410173002030CA9783C544
:1032D00007004E8571358347040085072300F400FD
:1032E000E9B7411126C4B7540040930550521385E5
:1032F000048022C6EFF0DFC951C113850480EFF0CE
:10330000DFC703C73182FD47AA851384318263EF8B
:10331000E700930717002300F40093870183BA970F
:103320002380A70013850480EFF09FC403470400A7
:10333000D14763FDE7027D45EFD00FDB41650547CF
:10334000130505802381E182EFD00FDA9387018393
:103350001307000293060002130600079305A00A54
:103360001305A00AEFE09FE3230004003755004057
:103370009305505213050580EFF0DFC53244A24497
:10338000410173002030B707002083A74708371793
:103390007A0013070720B3D7E70293F7F70F2383C9
:1033A000F1821307803EB387E7022392F182828085
:1033B000B7F700E0D8438146799BD8C303C7618241
:1033C0003306A70290CBD4CB98431367170398C357
:1033D000D843058B75DF9843799B98C38280B7F7F4
:1033E00000E0D8438146799BD8C303D74182330696
:1033F000A70290CBD4CB98431367170398C3D84345
:10340000058B75DF9843799B98C38280797122D4AC
:1034100085452A843705020006D6EFF0FFA08545D2
:103420001145EFF09F9E91472312F100371501409F
:103430008D473EC44C00E147130505803EC6EFF0C2
:103440008FF122C837440040B70708000C08130565
:1034500004403ECC02CA231E0100EFF0DF9E13059C
:1034600004408545EFF0BFABB250225445618280E5
:10347000011126CAB744004022CC4AC84EC606CE27
:10348000AE893289014493840440634A2401F240A6
:1034900062444A85D2444249B2490561828093051B
:1034A00000042685EFF01FAE7DD9B38789008385A0
:1034B000070026850504C205C181EFF07FABF1B797
:1034C0001387C1801C43938641C73E95636BD5002B
:1034D000B78600209386068063E5A60008C33E8574
:1034E0008280FD57EDBF01476314E60001458280ED
:1034F000B307E5000507B386E50083C7070083C669
:10350000F6FFE383D7FE3385D740828039713EDAF8
:103510002ED232D436D63AD842DC46DE93870181A9
:1035200022CC804326CA06CEAA8409C41C4C99E347
:1035300022858D230C4454102686228536C6EF0042
:10354000501AF2406244D24421618280011126CA9D
:103550004AC806CE22CC4EC652C4AA842E8901C5C2
:103560001C4D91E3052B9C4C804499E326851D233B
:10357000974700009387474D631CF402C040835770
:10358000C400A18BB1C71C48A1C7FD59294A1C44DE
:1035900083450900FD17B1E91CC463DE07062286D6
:1035A000A9452685E920FD576308F502294535A080
:1035B000974700009387474B6314F4008044C1B7DA
:1035C0009747000093874746E31BF4FAC04445BF82
:1035D000A2852685A92A55D97D55F2406244D24458
:1035E0004249B249224A056182801CC4050963D759
:1035F0000700184C63CBE700638945011C40138723
:10360000170018C02380B70059B722862685852069
:10361000E31F35F7D1B71C401387170018C029479F
:103620002380E70061B793870181AA85884339BF6A
:103630000347050083C7050001E791C30145828068
:10364000814701A88347150013071500E5DB814773
:103650003A853387F5000347070075D3B306F500B5
:1036600083C60600E390E6FE85072A87D5B70111D9
:1036700022CC26CA4AC806CE4EC6AA842E893284D7
:1036800001C51C4D91E33921974700009387C73B43
:103690006319F406C0401C4C1CC48357C400A18BA2
:1036A000C9C31C48BDCF1C4808409379F90F137952
:1036B000F90F1D8D5C486346F500A2852685652CB3
:1036C0002DE51C440505FD171CC41C40138717007D
:1036D00018C0238037015C486389A7008357C40062
:1036E000858B81CBA9476316F900A28526856124C5
:1036F0000DEDF24062444A85D2444249B249056127
:10370000828097470000938727366314F400804433
:1037100059B79747000093872731E31EF4F6C0445A
:103720009DBFA285268521203DDD7D59D9B7411158
:103730009387018126C2844322C44AC006C62A89CF
:103740002E8489C49C4C99E32685A92697470000BE
:103750009387872F631CF402C0400317C40093179C
:103760000701C18393F68700B5EE93F607019DEE3E
:10377000A5472320F900136707042316E4007D55AD
:10378000B24022449244024941018280974700009E
:103790009387872D6314F4008044C1B797470000D6
:1037A00093878728E31BF4FAC04445BF918B8DC7EC
:1037B0004C5889C9930744046384F5004A85352B26
:1037C000232A04028357C4002322040093F7B7FD81
:1037D0002316F4001C481CC08357C40093E78700DD
:1037E0002316F4001C4881EF8357C4001307002000
:1037F00093F707286385E700A2854A8585218357CB
:10380000C40013F7170005C75C4823240400B3075E
:10381000F0401CCC1C480145A5F78317C40013F7E2
:10382000070839DF93E707042316F40089BF898B63
:10383000014791E3584818C4F1BF83D7C50001116F
:1038400022CC26CA06CE4AC84EC613F78700AA84E1
:103850002E8471EFD841634DE000B841634AE00027
:103860000145F2406244D2444249B2490561828036
:1038700058547DD703A904009396370123A0040070
:1038800063DD060670488357C400918B99C75C407E
:103890001D8E5C5899C33C401D8E5C540C50814673
:1038A00026858297FD570357C400631DF500944099
:1038B000F54763E8D706B70740208507B3D7D70099
:1038C000858BA5C31C48232204001CC09317370115
:1038D00063D80700FD576314F5009C4091E368C866
:1038E0004C5823A02401ADDD930744046384F50004
:1038F00026852121232A0402A5B70C5001468546BE
:1039000026850297FD572A86E31FF5F69C40A5DF22
:1039100075476385E70059476394E70423A02401B2
:1039200081B7136707042316E4007D551DBF83A9E3
:103930000501E38709F203A905008D8B23A035015A
:1039400033093941014791E3D84918C4E35A20F1BA
:103950001C540C50CA864E86268582976349A00067
:103960008357C40093E707042316F4007DBFAA9988
:103970003309A940E1BF9C49B9CF011122CC06CE41
:103980002A8411C51C4D81E72EC62922B2459747CE
:1039900000009387670B639BF5004C408397C5003D
:1039A00095C722856244F240056141BD97470000FA
:1039B0009387870B6394F5000C44CDB797470000BD
:1039C00093878706E39CF5FC4C44C9BFF2406244F0
:1039D00001450561828001458280411122C406C6ED
:1039E0002A842316B5002317C500232005002322AF
:1039F0000500232405002322050623280500232A89
:103A00000500232C0500214681451305C505EFC09F
:103A10002FFF971700009387A7B45CD0971700007B
:103A2000938707B71CD497170000938747BB5CD4D4
:103A300097170000938707BE00D01CD8B2402244DD
:103A40004101828097050000938525F3A9A24111C9
:103A500026C2130680069384F5FFB384C4024AC0CD
:103A60002E8922C406C693854407252E2A8401CDBB
:103A70002320050023222501310508C4138684066E
:103A80008145EFC0EFF72285B240224492440249BB
:103A9000410182801C4DADE3411106C622C4970747
:103AA0000000938767FA1CD5938741819C432324A8
:103AB000050423260504232805046314F50085471F
:103AC0001CCD2A841D2848C02285052808C42285CB
:103AD0002D2048C448400146914501370844054619
:103AE000A545E53D48440946C945C53D85471CCC2B
:103AF000B2402244410182808280411193874181FA
:103B000026C284434AC006C69C4C22C42A8999E333
:103B100026854937938484048044DC40FD1763D6AE
:103B200007009C40B9CF8440C5BF0317C40039E7E4
:103B3000C1778507232204062320040023220400E2
:103B4000232404005CC423280400232A0400232C1B
:103B50000400214681451305C405EFC06FEA232AFE
:103B60000402232C040223240404232604042285B3
:103B7000B2402244924402494101828013048406E7
:103B800071BF91454A85E13588C051FDB147232079
:103B9000F9000144E9BF797122D44AD052CC56CA07
:103BA0005AC85EC606D626D24ECE2A8AAE8A1304DC
:103BB00085040149054BFD5B09ECB25022544A854E
:103BC00092540259F249624AD24A424BB24B456181
:103BD0008280044483294400FD1963D40900004015
:103BE000E1BF83D7C400637BFB008397E400638756
:103BF0007701A6855285829A3369A9009384840649
:103C0000E1BF1971A6DAAE848395E500A2DC86DEF9
:103C1000328463DC050083D7C40023A0060093F739
:103C2000070885E7930700401DA0300836C6EF005F
:103C3000F023B246E34105FE7247BD67F98F7977FD
:103C4000BA9793B717009CC2F1BF930700041CC03A
:103C5000F6506654D65401450961828083D7C50069
:103C6000011122CC06CE26CA4AC8898B2E8489CF60
:103C7000930774041CC01CC885475CC8F2406244AA
:103C8000D24442490561828074003000AA84953F85
:103C9000A2452A892685312201ED8317C40013F736
:103CA000072069FFF19B93E727002316F400C9B7AB
:103CB00097070000938747D99CD48357C40008C056
:103CC00008C893E707082316F400A2475CC8B24768
:103CD00091CF8315E4002685EF00F01B01C98357BF
:103CE000C400F19B93E717002316F4008357C40028
:103CF0003369F9002316240151B7DDC183A7C5FF3D
:103D0000411122C406C626C21384C5FF63D307002F
:103D10003E94AA84EF00101F938781829C4381EF19
:103D20002322040023A481822244B24026859244A7
:103D300041016F00501D637EF40014403307D4002E
:103D40006396E7009843DC43369718C05CC0D9BF40
:103D5000BA87D84319C3E37DE4FE94433386D70082
:103D6000631F86001040B29694C33386D700E31DCC
:103D7000C7FA10435843B29694C3D8C375B7637556
:103D8000C400B1479CC04DB71040B306C4006316D1
:103D9000D70014435843B29614C058C0C0C369B783
:103DA0008280011126CA93843500F19806CE22CC78
:103DB0004AC84EC6A104B14763F3F404B14463E2B8
:103DC000B4042A89EF0010149387818298433A84BF
:103DD00039E09387C1829C4391E781454A85912FC1
:103DE00023A6A182A6854A85A927FD59631935070F
:103DF000B1472320F9004A85EF00F01029A0E3D055
:103E000004FCB1471CC10145F2406244D24442491E
:103E1000B249056182801C40858F63CF0702AD46A1
:103E200063F6F6001CC03E9404C031A05C406313EE
:103E3000870223A4F1824A85EF00F00C1305B40039
:103E40009307440061993307F5405DDF3A94898F09
:103E50001CC05DBF5CC3C5B72287404095BF13043B
:103E600035007198E30285FCB305A4404A85D1254D
:103E7000E31C35FBB5BF1C46FD171CC663DA070003
:103E8000184E63C5E700A9476394F5006FF02FFE55
:103E90001C422E851387170018C22380B70082802A
:103EA000011122CC26CA4AC84EC652C406CE2A895F
:103EB000AE893284B304D6007D5A63149400014560
:103EC00009A8834504004E864A8575370504E31624
:103ED00045FFF2406244D2444249B249224A056158
:103EE0008280357122CD26CB4AC94EC706CF52C536
:103EF00056C35AC1DEDEE2DCE6DAAA89AE84328934
:103F0000368409C51C4D99E3EFF0DFB897470000F0
:103F1000938787B3639BF40C83A4490083D7C400C1
:103F2000A18BF5C79C48E5C793070002A304F102E3
:103F30009307000302D22305F10222C6930B50021D
:103F4000974A0000938A4AB4054C294B4A84834718
:103F5000040099C36390770FB30C2441638D0C0068
:103F6000E6864A86A6854E85253FFD576306F51EE3
:103F70009256E69636D283470400638F071CFD579E
:103F80001309140002C802CE3ECA02CCA3090104E0
:103F900082D48345090015465685812F13041900E4
:103FA000C24759E913F7070109C713070002A3091C
:103FB000E10413F7870009C71307B002A309E1045E
:103FC000834609001307A0026380E608F2474A848B
:103FD000814625460347040093051400130707FD97
:103FE0006379E60AB5CA3ECE85A897470000938755
:103FF000A7A76395F40083A489000DB79747000035
:10400000938787A2E39CF4F083A4C90001BFA6852F
:104010004E85EFF0CFF109D97D55FA406A44DA4474
:104020004A49BA492A4A9A4A0A4BF65B665CD65C08
:104030000D618280050421BF330555413315AC0065
:10404000C98F3EC82289B1B732479306470018434B
:1040500036C6634907023ACE034704009307E002DD
:10406000631FF704034714009307A002631BF702C2
:10407000B2470904138747009C433AC663C107024D
:104080003ECA35A83307E04093E727003ACE3EC842
:10409000E1B7B387670385462E84BA9725BFFD57DE
:1040A000C5B7050402CA8146814725460347040077
:1040B00093051400130707FD6376E606F1F28345C6
:1040C00004000D46174500001305859C392D11CDC0
:1040D000974700009387C79B1D8D93070004B397F4
:1040E000A700424505045D8D2AC883450400194692
:1040F000174500001305059A130914002304B102A3
:10410000ED233DC197C7FFFF9387C7EF95E7424770
:10411000B2471377071009CF91073EC69257D2973F
:104120003ED22DB5B387670385462E84BA97BDBFAF
:104130009D07E19BA107D5B77800970600009386FD
:1041400066D626860C084E8597000000E700000022
:10415000FD572A8AE314F5FC83D7C40093F70704BC
:10416000E39C07EA125555BD780097060000938638
:1041700066D326860C084E85012AD9BF797156CAA6
:104180009C49BA8A984522D426D24ECE52CC06D625
:104190004AD05AC85EC6AA892E84B284368A63D3AE
:1041A000E700BA879CC00347340419C385079CC045
:1041B0001C4093F7070281C79C4089079CC00329D4
:1041C000040013796900631A0900130B9401FD5B65
:1041D0005C449840998F634CF9041C408346340436
:1041E00093F70702B336D000A5EB13063404D2854B
:1041F0004E85829AFD576303F5041C401146984092
:10420000998B544481446397C700B384E64063D3D9
:10421000040081441C4418486354F700998FBE94ED
:10422000014969047D5B63982405014509A8854619
:104230005A86D2854E85829A631E75017D55B2508D
:10424000225492540259F249624AD24A424BB24B2A
:10425000456182800509ADBF3307D4001306000312
:10426000A301C7040347540493871600A297890645
:10427000A381E7049DBF85462286D2854E85829A1A
:10428000E30E65FB050945B7797122D426D24AD0E1
:104290004ECE06D652CC56CA5AC8B68983C68501B8
:1042A000930790063289AA842E8413863504638D81
:1042B000F60263E2D706930780056388F61863ED7C
:1042C000D7006381062293073004638EF60A930AAF
:1042D00024042301D404C9A0930730066385F60A99
:1042E00093074006E395F6FE1C40084393F6070843
:1042F00093054500C5C61C410CC363D807001307CE
:10430000D002B307F040A301E4049736000093867F
:10431000E67829476DA8930700076384F61663E5DE
:10432000D7029307E006638BF6189307F006E39035
:10433000F6FA0C401C4313F8050813854700630781
:10434000080608C39C438DA893075007E383F6FE35
:1043500093078007638BF61293073007E399F6F60D
:104360001C43D04181459386470014C383AA0700AC
:104370005685A52E01C53305554148C05C401CC873
:10438000A301040471A81C43930A240493864700E4
:104390009C4314C32301F4048547D5B793F607045F
:1043A0001C410CC3B9DAC207C18781BF93F505046C
:1043B00008C3C9D983D707001307F0066388E60E40
:1043C000973600009386866D2947A30104044C406C
:1043D0000CC463C5050008406D9908C099E3B28A12
:1043E00091CDB28AB3F5E702FD1AB69583C50500F3
:1043F0002380BA00B3D5E70263F0E70CA147631E40
:10440000F7001C40858B91CB58401C4863C7E700E0
:1044100093070003A38FFAFEFD1A3306564110C816
:104420004E87CA867000A2852685EFF03FD57D5A5B
:10443000631E450B7D55B250225492540259F249E5
:10444000624AD24A424B45618280A382D5049736A4
:1044500000009386A6640C40084313F805081C412D
:104460001105630D080208C313F7150001C793E592
:1044700005020CC04147B1FB0C4093F5F5FD0CC0A3
:10448000A9B79C4193E707029CC193078007A30249
:10449000F404973600009386A66175BF13F80504EF
:1044A00008C3E30308FCC207C1837DBF9736000041
:1044B0009386C65E214711BFAE872DB794411C433A
:1044C000CC4913F80608138547006306080008C3A3
:1044D0009C438CC301A808C393F606049C43F5DAF9
:1044E0002390B70023280400B28A1DBF14485686C3
:1044F000CA8526858299E30F45F31C40898B8DE799
:10450000B2474844E359F5F23E8535B785465686AD
:10451000CA8526858299E30F65F1050A5C44324716
:10452000998FE345FAFEE9BF014A930A94017D5B46
:10453000F5B7411122C42A842E8523A801C606C6D8
:10454000EFE01FF8FD576317F500938701C79C4301
:1045500091C31CC0B240224441018280411122C457
:104560002E848395E50006C64522634905007C48F4
:10457000AA977CC8B2402244410182808357C4007C
:104580007D777D17F98F2316F400EDB783D7C5002B
:10459000011122CC26CA4AC84EC606CE93F7071090
:1045A000AA842E843289B68991C78395E50089460D
:1045B000014631228357C4007D777D17F98F23167A
:1045C000F4008315E4006244F240CE864A86B24984
:1045D00042492685D24405613DA8411122C42E845A
:1045E0008395E50006C6E128FD570357C400631B09
:1045F000F500FD77FD17F98F2316F400B240224431
:10460000410182808567D98F2316F40068C8FDB701
:104610008395E50005A8411122C42A842E85B28520
:10462000368623A801C606C6EFE09FE4FD57631750
:10463000F500938701C79C4391C31CC0B24022443C
:1046400041018280411122C42A842E8523A801C6FB
:1046500006C6CD20FD576317F500938701C79C431D
:1046600091C31CC0B240224441018280411122C446
:104670002A842E85B28523A801C606C6D120FD57FF
:104680006317F500938701C79C4391C31CC0B240D8
:10469000224441018280411122C42A842E8523A80C
:1046A00001C606C66520FD576317F500938701C74D
:1046B0009C4391C31CC0B2402244410182804111FD
:1046C00022C42A842E85B285368623A801C606C652
:1046D0006120FD576317F500938701C79C4391C381
:1046E0001CC0B24022444101828093F5F50F2A9606
:1046F0006314C5000145828083470500E38DB7FE42
:104700000505FDB782808280411122C42A842E854E
:10471000B285368623A801C606C6A920FD576317B1
:10472000F500938701C79C4391C31CC0B24022444B
:10473000410182809307800523A8F1C67D558280C0
:104740009307800523A8F1C67D55828093078005D5
:1047500023A8F1C6014582809307800523A8F1C6EE
:104760007D5582809307800523A8F1C67D55828000
:10477000C4A3BFE9B3F5CABCBBAF0D0041540D00E3
:104780004154490D000000004669626F636F6D007F
:10479000B2E9D1AFD0C5CFA2CAA7B0DC00000000FB
:1047A000B0E6B1BED0C5CFA2D5FDC8B700000000AD
:1047B00041542B43475245473F0D00002B4347527E
:1047C00045473A20302C31005053D7A2B2E1CEDE1B
:1047D000D0A700005053D7A2B2E1D3D0D0A7000099
:1047E00041542B54434D5154545055423D2224744E
:1047F00068696E672F75702F70726F70657274794B
:104800002F5A324A4B43354F4C43372F736D6172E9
:104810007443617274222C312C227B5C226D65748E
:10482000686F645C223A5C227265706F72745C22FD
:104830002C5C22636C69656E74546F6B656E5C22D0
:104840003A5C223132335C222C5C22706172616DE1
:10485000735C223A7B5C2270726F647563744944A6
:104860005C223A5C2225735C227D7D220D0A0000C9
:104870007468696E67000000C9CFB1A8CAA7B0DC30
:1048800000000000C9CFB1A8B3C9B9A6000000005C
:1048900041542B4D495043414C4C3F0D000000000A
:1048A0002B4D495043414C4C3A203100BBB9CEB45A
:1048B000BBF1C8A1B5BD49500000000041542B4DCB
:1048C000495043414C4C3D310D000000BBF1C8A1A3
:1048D0004950B3C9B9A6000041542B54434445562E
:1048E000494E464F5345543D312C225A324A4B4390
:1048F000354F4C4337222C22736D617274436172C1
:1049000074222C2268765274523553706550687741
:1049100044714C356E57445232513D3D220D0000DA
:104920002B5443444556494E464F5345543A204F25
:104930004B000000C6BDCCA8D0C5CFA2C9E8D6C3E5
:10494000CAA7B0DC00000000C6BDCCA8D0C5CFA26D
:10495000C9E8D6C3B3C9B9A60000000041542B541E
:10496000434D515454434F4E4E3D312C3230303034
:10497000302C3234302C312C310D00002B54434D6F
:10498000515454434F4E4E3A204F4B002B434D450C
:10499000204552524F523A2034000000C1ACBDD3E2
:1049A000CAA7B0DC0000000041542B54434D5154C1
:1049B00054444953434F4E4E0D000000C1ACBDD38B
:1049C000B3C9B9A60000000041542B54434D5154C3
:1049D000545355423D22247468696E672F646F7783
:1049E0006E2F70726F70657274792F5A324A4B4312
:1049F000354F4C43372F736D61727443617274226B
:104A00002C310D002B54434D5154545355423A20F0
:104A10004F4B0000B6A9D4C4B1EAC7A9CAA7B0DCFD
:104A200000000000B6A9D4C4B1EAC7A9B3C9B9A6A9
:104A30000000000000000000000000000000000076
:104A4000000000003F4000000000000000003000B7
:104A5000400030004000000009000BC03D000BC0CA
:104A60003D00090018C024407FE022403180000052
:104A7000180024C01B000D803240018003801C40C0
:104A800027401C800740004010006000000000002C
:104A9000000000000000000000001F8020404020B7
:104AA0000000402020401F80000000000900060098
:104AB0001F80060009000000040004003F8004007D
:104AC0000400000000100060000000000000000072
:104AD0000400040004000400040000000000004082
:104AE0000000000000000000002001C006003800A7
:104AF000400000001F802040204020401F80000018
:104B0000000010403FC000400000000018C02140DD
:104B100022402440184000001080204024402440BF
:104B20001B80000002000D0011003FC0014000008A
:104B30003C80244024402440238000001F802440E7
:104B400024403440038000003000200027C038009B
:104B5000200000001B802440244024401B800000D3
:104B60001C0022C0224022401F80000000000000E4
:104B70000840000000000000000000000460000089
:104B800000000000000004000A00110020804040E6
:104B90000900090009000900090000000000404068
:104BA000208011000A000400180020002340240087
:104BB000180000001F802040274029401F400000AF
:104BC000004007C039000F0001C0004020403FC036
:104BD000244024401B8000001F80204020402040B3
:104BE0003080000020403FC0204020401F80000057
:104BF00020403FC024402E4030C0000020403FC035
:104C000024402E00300000000F0010802040224081
:104C10003380020020403FC0040004003FC0204019
:104C2000204020403FC02040204000000060202065
:104C300020203FC02000200020403FC024400B0027
:104C400030C0204020403FC020400040004000C015
:104C50003FC03C0003C03C003FC0000020403FC0BC
:104C60000C4023003FC020001F80204020402040F7
:104C70001F80000020403FC0244024001800000096
:104C80001F802140214020E01FA0000020403FC0A5
:104C90002440260019C0004018C02440244022406F
:104CA00031800000300020403FC020403000000034
:104CB00020003F80004000403F80200020003E0058
:104CC00001C0070038002000380007C03C0007C0C2
:104CD00038000000204039C0060039C020400000E4
:104CE0002000384007C0384020000000304021C07C
:104CF0002640384020C00000000000007FE0402037
:104D000040200000000070000C0003800040000004
:104D10000000402040207FE0000000000000200054
:104D200040002000000000000010001000100010E3
:104D30000010001000000000400000000000000013
:104D4000000002800540054003C0004020003FC035
:104D5000044004400380000000000380044004403D
:104D60000640000000000380044024403FC0004093
:104D7000000003800540054003400000000004409F
:104D80001FC0244024402000000002E005500550D0
:104D90000650042020403FC00440040003C00040EF
:104DA0000000044027C00040000000000010001078
:104DB000041027E00000000020403FC00140070031
:104DC00004C00440204020403FC00040004000009C
:104DD00007C0040007C0040003C00000044007C06F
:104DE0000440040003C0004000000380044004406D
:104DF00003800000041007F004500440038000000A
:104E0000000003800440045007F00010044007C075
:104E10000240040004000000000006400540054078
:104E200004C00000000004001F8004400040000097
:104E3000040007800040044007C000400400070051
:104E400004C0018006000400060001C0070001C084
:104E500006000000044006C0010006C00440000037
:104E60000410071004E00180060004000000044064
:104E700005C00640044000000000000004007BE084
:104E800040200000000000000000FFF000000000D3
:104E9000000040207BE00400000000004000800093
:104EA0004000200020004000000000000000000042
:104EB00000000000000000000000000000001FCC07
:104EC000000C00000000000000000800300060003E
:104ED0000800300060000000022003FC1E200220B9
:104EE00003FC1E200220000000000E1811043FFFEA
:104EF00010840C78000000000F0010840F3800C0F0
:104F0000077818840078000000780F8410C41124FA
:104F10000E9800E40084000808006800700000009B
:104F2000000000000000000000000000000007E09A
:104F30001818200440020000000040022004181845
:104F400007E00000000000000240024001800FF076
:104F500001800240024000000080008000800FF8C5
:104F600000800080008000000001000D000E0000A5
:104F700000000000000000000000008000800080B1
:104F800000800080008000800000000C000C000009
:104F90000000000000000000000000060018006093
:104FA0000180060018002000000007F00808100427
:104FB0001004080807F000000000080408041FFCA3
:104FC000000400040000000000000E0C1014102467
:104FD000104411840E0C000000000C181004110481
:104FE000110412880C700000000000E0032004246B
:104FF00008241FFC0024000000001F9810841104E6
:105000001104108810700000000007F008881104D7
:10501000110418880070000000001C00100010FC33
:1050200013001C001000000000000E381144108412
:10503000108411440E38000000000700088C104452
:105040001044088807F00000000000000000030C76
:10505000030C000000000000000000000001010639
:10506000000000000000000000000080014002205D
:105070000410080810040000022002200220022070
:105080000220022002200000000010040808041082
:10509000022001400080000000000E001200100CF1
:1050A000106C10800F00000003E00C1813E41424AF
:1050B00017C4082807D000000004003C03C41C40AB
:1050C000074000E4001C000410041FFC110411043C
:1050D00011040E880070000003E00C181004100486
:1050E000100410081C10000010041FFC1004100411
:1050F0001004080807F0000010041FFC110411043C
:1051000017C410040818000010041FFC110411003B
:1051100017C010000800000003E00C181004100471
:1051200010441C780040000010041FFC1084008014
:10513000008010841FFC10040000100410041FFCE9
:105140001004100400000000000300011001100111
:105150001FFE10001000000010041FFC110403804B
:105160001464181C1004000010041FFC1004000438
:1051700000040004000C000010041FFC1F0000FCD1
:105180001F001FFC1004000010041FFC0C0403008F
:1051900000E010181FFC100007F0080810041004AD
:1051A0001004080807F0000010041FFC1084108091
:1051B000108010800F00000007F008181024102441
:1051C000101C080A07F2000010041FFC1104110053
:1051D00011C011300E0C000400000E1C11041084CC
:1051E000108410441C3800001800100010041FFC2C
:1051F000100410001800000010001FF81004000434
:10520000000410041FF8100010001E0011E0001C24
:10521000007013801C0010001FC0103C00E01F0035
:1052200000E0103C1FC000001004180C163401C030
:1052300001C01634180C100410001C00130400FCEC
:1052400013041C00100000000804101C10641084DB
:1052500013041C04101800000000000000007FFE72
:105260004002400240020000000030000C000380B9
:105270000060001C000300000000400240024002E9
:105280007FFE000000000000000000002000400041
:10529000400040002000000000010001000100016A
:1052A000000100010001000100004000400020005A
:1052B00000000000000000000000009801240144EC
:1052C0000144014400FC000410001FFC008801049C
:1052D00001040088007000000000007000880104D4
:1052E000010401040088000000000070008801042F
:1052F000010411081FFC0004000000F801440144EF
:105300000144014400C800000000010401040FFC36
:105310001104110411001800000000D60129012910
:10532000012901C90106000010041FFC00840100CE
:105330000100010400FC000400000104190419FC30
:10534000000400040000000000000003000101014F
:10535000190119FE0000000010041FFC0024004089
:1053600001B4010C010400000000100410041FFC33
:105370000004000400000000010401FC010401001D
:1053800001FC0104010000FC010401FC0084010097
:105390000100010400FC0004000000F80104010405
:1053A0000104010400F80000010101FF008501046F
:1053B00001040088007000000000007000880104F3
:1053C0000104010501FF00010104010401FC008446
:1053D0000104010001800000000000CC0124012430
:1053E000012401240198000000000100010007F8D9
:1053F0000104010400000000010001F800040004A1
:105400000004010801FC0004010001800170000C8F
:10541000001001600180010001F0010C003001C0AA
:105420000030010C01F0010000000104018C007447
:105430000170018C01040000010101810171000E65
:10544000001801600180010000000184010C01349A
:1054500001440184010C0000000000000000000075
:1054600001003EFC4002400200000000000000007D
:10547000FFFF0000000000000000400240023EFC70
:1054800001000000000000000000600080008000BB
:10549000400040002000200000000000000000004C
:1054A00000000000000000000000000000000000FC
:1054B00000000000000000000000000000000000EC
:1054C00000000000000000000000000F80380FFE08
:1054D000380F8038000000000000000000000000CD
:1054E0000000000000000100000600000C00003871
:1054F00000003100000600000C0000380000300001
:10550000000000000000000061800067F807F980DB
:105510000061800061800061800061800067F807A1
:10552000F98000618000000000000000000001C060
:10553000E003E0F00630080418081FFFFE040E0820
:105540000787F00381E000000000000001F0000682
:105550000C00040408060C7001F9C0000E00003BAA
:10556000E000EC18070808040C180003E000000035
:105570000001E00007F003F818041C0804170807EE
:10558000E1D003C0E00023B0003C08002008000088
:105590001000000000000001000031000032000097
:1055A0001C000000000000000000000000000000DF
:1055B00000000000000000000000000000000000EB
:1055C00000000000000000007F0001FFC00780F025
:1055D0000C00181000042000020000000000002051
:1055E00000021000040C00180780F001FFC0007FCB
:1055F00000000000000000000000000000000000AB
:10560000000000004200006600006600003C000050
:10561000180003FFC0001800003C00006600006690
:105620000000420000000000080000080000080020
:1056300000080000080001FFC0000800000800008A
:105640000800000800000800000000000001000041
:105650003100003200001C000000000000000000CB
:10566000000000000000000000000000000000003A
:1056700008000008000008000008000008000008FA
:1056800000000800000800000800000800000000FA
:105690000000000000000000380000380000380062
:1056A00000000000000000000000000000000000FA
:1056B0000000000000000000000600001C00007058
:1056C000000180000E0000380000C0000700001C30
:1056D0000000300000000000000000007F8001FF9B
:1056E000E003807006001804000804000806001893
:1056F00003807001FFE0007F8000000000000000D8
:10570000000001000801000801000803FFF807FF7E
:10571000F800000800000800000800000000000079
:1057200000000001C03802C05804009804011804A9
:105730000218040418061C1803F81801E0F8000009
:105740000000000000000001C0E003C0F0040008F9
:1057500004080804080806180803F41801E7F00014
:1057600001E0000000000000000000000300000D48
:105770000000110000610000810803010807FFF824
:105780000FFFF80001080001080000000000000001
:1057900000E007FCD00608080610080610080610EE
:1057A00008061838060FF00607C0000000000000C9
:1057B000000000003F8001FFE0038430020818046D
:1057C0001008041008041008071810030FF0000751
:1057D000C000000000000000000003C0000700003F
:1057E0000600000600F80607F806180006E00007A5
:1057F000000006000000000000000001E1E003F7E7
:10580000F0063410041808041808040C08040C08E6
:1058100006161803F3F001C1E000000000000000CC
:10582000F80003FC300306380402080402080402EE
:10583000080404100308F001FFC0007F000000000E
:105840000000000000000000000000000000000058
:105850007038007038007038000000000000000050
:105860000000000000000000000000000000000038
:1058700000000000301A00301C0000000000000092
:105880000000000000000000000000000000000810
:105890000000140000220000410000808001004050
:1058A00002002004001008000800000000000000B2
:1058B0002100002100002100002100002100002122
:1058C0000000210000210000210000210000000054
:1058D0000000000000000800080400100200200181
:1058E00000400080800041000022000014000008F9
:1058F0000000000000000003C00004C0000400001D
:10590000080038080F380808380810000C30000765
:10591000E00003C000000000000000003F8000FF26
:10592000E0038070020F1006708804C088048308AA
:10593000047F8802C09003012000FE4000000800A0
:1059400000180001F8003E0801C20007020007E24B
:105950000000FE00001FC80001F800003800000829
:1059600004000807FFF807FFF80408080408080403
:10597000080804080806180803F41801E7F00001F5
:10598000E0000000000000003F8001FFE0038070A5
:1059900002001804000804000804000804001006AF
:1059A00000200780C000000004000807FFF807FF80
:1059B000F80400080400080400080400180200109D
:1059C00003807001FFE0007F8000000004000807F2
:1059D000FFF807FFF804080804080804080804088A
:1059E00008043E08040008060018010060000000DA
:1059F00004000807FFF807FFF8040808040800047B
:105A00000800040800043E000600000600000180B3
:105A100000000000000000003F8001FFE0038070F4
:105A20000600180400080402080402080203F00734
:105A300083F000020000020004000807FFF807FFDF
:105A4000F80408080008000008000008000008002A
:105A500004080807FFF807FFF8040008000000002A
:105A6000000004000804000804000807FFF807FF0E
:105A7000F80400080400080400080000000000000A
:105A800000000000000600000700000104000104FF
:105A9000000104000307FFFE07FFFC0400000400F0
:105AA0000004000004000807FFF807FFF8040C08D2
:105AB000001800003E0004C7800503C80600F80473
:105AC000003804001800000804000807FFF807FF6A
:105AD000F8040008000008000008000008000008A2
