:100000006F30602013000000130000001300000098
:100010001300000013000000130000001300000094
:100020001300000013000000130000001300000084
:08003000130000007300100032
:100038000000000000000000AE090000B209000046
:10004800000000004C31000000000000000000002B
:100058004E31000050310000000000000000000098
:100068005231000000000000543100000000000080
:1000780056310000583100005A3100005C31000050
:100088005E31000060310000623100006431000020
:1000980066310000683100006A3100006C310000F0
:1000A8006E310000703100007231000074310000C0
:1000B80076310000783100007A3100007C31000090
:1000C8007E31000080310000823100008431000060
:1000D80086310000883100008A3100008C31000030
:1000E8008E31000090310000923100009431000000
:1000F80096310000983100009A3100009C310000D0
:100108009E3100004C390000DA390000A4310000AB
:10011800A6310000A8310000AA310000AC3100006F
:10012800AE310000B0310000B2310000B43100003F
:10013800B6310000B8310000BA310000BC3100000F
:10014800BE310000C0310000C2310000C4310000DF
:10015800C6310000C8310000CA310000CC310000AF
:10016800CE310000D0310000D2310000D43100007F
:10017800D6310000D8310000DA310000DC3100004F
:10018800DE310000E0310000E2310000E43100001F
:10019800E6310000E8310000EA310000EC310000EF
:1001A800EE310000F0310000F2310000F4310000BF
:1001B800F6310000F8310000FA310000FC3100008F
:1001C800FE3100000032000002320000043200005C
:1001D8000000000000000000000000000000000017
:1001E8000000000000000000000000000000000007
:0801F8000000000000000000FF
:100200003D432A876373C3029377F700BDEFADE5E3
:10021000937606FF3D8ABA960CC34CC30CC74CC7F5
:100220004107E36BD7FE11E28280B306C3408A0622
:100230009702000096966780A6002307B700A306E2
:10024000B7002306B700A305B7002305B700A30432
:10025000B7002304B700A303B7002303B700A3022A
:10026000B7002302B700A301B7002301B700A30022
:10027000B7002300B700828093F5F50F93968500B1
:10028000D58D93960501D58D61B79396270097027A
:10029000000096968682E78086FA9680C1171D8FA9
:1002A0003E96E374C3F8A5B73367B500FD530D8BD5
:1002B00079E7B7877F7F9387F7F710419441B3724F
:1002C000F6003363F600BE92B3E262006397720CED
:1002D0006318D6065041D441B372F6003363F6007A
:1002E000BE92B3E262006398720A631BD6041045A3
:1002F0009445B372F6003363F600BE92B3E2620037
:100300006391720A631ED6025045D445B372F6005B
:100310003363F600BE92B3E26200639A720863111F
:10032000D60210499449B372F6003363F600BE92C8
:10033000B3E26200639372085105D105E30FD6F66C
:100340001317060193970601631CF7001357060164
:1003500093D706013305F7409375F50F91E9828035
:100360004183C1833305F7409375F50F91E1828096
:100370001377F70F93F7F70F3305F74082800346A3
:10038000050083C60500050585056313D60065FADB
:100390003305D640828011059105E312D6FE014552
:1003A00082802105A105E31CD6FC01458280310530
:1003B000B105E316D6FC014582804105C105E31075
:1003C000D6FC0145828001118545214506CE22CC0F
:1003D00026CAEF30202737140140C1473EC68D445E
:1003E00089474C00130504C02312F10026C4EF20F6
:1003F000F07891473EC64C008547130504C026C4DB
:100400002312F100EF209077F2406244D24405615C
:1004100082802A86371501408945130505C06F3053
:10042000200301118545214506CE22CCEF308021E5
:1004300091473EC63714014085472312F1004C0016
:100440008D47130504C03EC4EF205073130504C04C
:100450008545EF20D07EF2406244056182804111E3
:1004600006C622C426C2753F014565375D3F7DFD46
:100470000545EF30A05DE14401440545593F014584
:100480000604413F793F11C10504FD1493F4F40FB4
:10049000EDF40545BD3F0145AD3F37058000218D99
:1004A000B2402244924441018280011129466C00ED
:1004B00006CEEF40D026B2478387070099E713079F
:1004C000F00F9377F50F637CA70083A70181379521
:1004D00000001305C535CC47EF30E0778147F24087
:1004E0003E850561828003A7818883A7818B4111A6
:1004F00022C4998F1305051323A0F18A06C6753708
:1005000083A7018A13074501636BF700311533B5E3
:10051000A70013451500B2402244410182800145E5
:10052000DDBF03A7818B83A78188411122C4998FE6
:100530001305051323A0F18A06C6853F83A7018A08
:1005400013074501636BF700311533B5A700134559
:100550001500B2402244410182800145DDBF0111F6
:100560008545114506CEEF30E00D930780043EC669
:1005700089679387078F371501402312F1004C00DC
:100580008D47130505803EC4EF20505FF2400561A2
:100590008280411122C437140140C14513050480F3
:1005A00006C626C2EF20B0690DE15145EF30E04CA0
:1005B00013040480C1452285EF20706865DD514534
:1005C000EF30A04B0547238CE180371401409305A1
:1005D000000213050480EF20906615E15145EF30CD
:1005E000C04913040480930500022285EF20306582
:1005F0007DD95145EF3060480947238CE18037149D
:1006000001409305000413050480EF20506315E1B9
:100610005145EF3080461304048093050004228581
:10062000EF20F0617DD95145EF3020450D47238CF7
:10063000E180371401409305000813050480EF2082
:10064000106015E15145EF304043130404809305D9
:1006500000082285EF20B05E7DD95145EF30E041A2
:100660001147238CE1808564371401409385048011
:1006700013050480EF20B05C1DE15145EF30E03FF1
:100680009384048013040480A6852285EF20305BC8
:1006900065DD5145EF30603E1547238CE18037140E
:1006A0000140856513050480EF2070590DE1514527
:1006B000EF30A03C1304048085652285EF2030587C
:1006C00065DD5145EF30603B1947238CE180B24036
:1006D000224403C581819244410182802E86AA85ED
:1006E000379500001305C5376F3090012171232A1B
:1006F000911AB7040020232C811A2328211B232EB2
:10070000111A2A892684838784456384071A13056E
:10071000800CEF308036B7950000938545421385F5
:100720008445EF30D00C0DC9814713062002930693
:1007300040063307F500030757006304C7006398BA
:10074000D714181B37950000BA970C08130585427B
:10075000238007E6EF30C07AB79500009385054403
:1007600013058445EF30B00805CD1808814793057F
:10077000200213064006B306F500838676006385E3
:10078000B6000507639BC710181B37950000BA9782
:100790009305610713058544238307ECEF3040760A
:1007A000B79500009385454613058445EF30300426
:1007B00039C5180881479305C002130820021306A3
:1007C0004006B306F500838686006387B60063851E
:1007D000060105076397C70C181BBA976C00E80958
:1007E000238607F2EF402051EF306033A30AA106C1
:1007F00037950000EC091305C546EF306070B795DA
:1008000000009385C54813058445EF30407E39C507
:10081000180881479305C0021308200213064006FA
:10082000B306F500838696006387B60063850601EC
:100830000507639CC706181BBA976C0088022388BB
:1008400007F8EF40404BEF30802DA30DA10C3795FA
:1008500000008C0213054549EF30806A1306004002
:10086000814513058445238401E6593A0C084A85DD
:100870001306001AEF30A0458320C11B0324811BFF
:100880004A858324411B0329011B396182800C089E
:10089000BE952380E500850769BD8507A302D706BD
:1008A000D9BD8507A305D70C29BF8507A307D71294
:1008B00085BF1305401FEF30401CB1B583A70181F0
:1008C000379500004111CC471305454F06C6EF3060
:1008D00080380545EF30002A23220500230005005B
:1008E0008280011122CC2A841305001A2EC606CE5E
:1008F00026CAEF30E038B24511E1C9371306001AB5
:10090000AA84EF30C03C5C4023AC041889EF44C09B
:1009100083470400F240D24485072300F400624478
:1009200005618280BA8703A787196DFF23AC9718EA
:10093000C5B7011122CC404106CE26CA4AC84EC6D0
:1009400025C02E89AA848149CA852285EFF0DF95CA
:10095000832784190DE9639C0902DCC02285EF30EE
:10096000C03283C7040037950000CA85FD17238075
:10097000F4001305454B6244F240D2444249B24967
:1009800005616F30E057A28991C73E8475BF23ACE3
:10099000F918E9B737950000CA851305454DE1BF41
:1009A000F2406244D2444249B249056182807300F8
:1009B000203001A001118545114506CE22CC02C28E
:1009C00002C402C6EF201048E1772312F100371469
:1009D0000140C1473EC64C008D47130504803EC40C
:1009E000EF20D01913050480A165EF20F025F24017
:1009F000624405618280B7070460F91783D7270036
:100A00004111C207C1832317F1000355E1004101E1
:100A10008280411106C6B7070460239FA7FE1545D3
:100A2000EF30C002B2404101F9B703D781E7B70701
:100A30000460239FE7FE8280138601E78357A600A8
:100A40003707046013588500231FF7FE8507C20788
:100A500023100701C183231FF7FE1375F50F231021
:100A6000A7008357C60013D6850093F5F50F231F03
:100A7000F7FE8507C2072310C700C183231FF7FEB7
:100A80002310B70082808D6503D601E7B7070460A5
:100A9000138501E79385056083562500239FB7FEE4
:100AA000930580062390B7008355A5007D16420666
:100AB00013881500239FB7FE4208239007001358A0
:100AC0000801239F07FF1388250042082390070091
:100AD0004182135808018D05239F07FFC205135853
:100AE000860023900701C181239FB7FE1376F60F7E
:100AF0002390C7000356C500FD16C20693051600D5
:100B0000239FC7FEC20523900700C181239FB7FE24
:100B100093052600C20523900700C182C1810D06FE
:100B2000239FB7FE420693D586002390B7004182EB
:100B3000239FC7FE93F6F60F2390D70082809387FA
:100B400001E70DE99306001E2398D1E623830700F1
:100B5000130700322391E7000D67930607C0239423
:100B6000D700930607A0130707B02395D700239655
:100B7000E70011BF85462383D700930600322398F0
:100B8000D1E61307001EF9B7411103D701E7938798
:100B900001E722C403D4270026C28145AA84014567
:100BA0003304E40206C6493D4935814737070460EE
:100BB00063978700B240224492444101828023100F
:100BC00097008507F5B7317185451305001006DFDD
:100BD00022DD26DB4AD94ED752D556D35AD15ECF25
:100BE00062CD66CB6AC96EC7EF20F0238545130539
:100BF0008006EF203025B71401400D449167414A2B
:100C0000138504C08A852310F10022C252C4F179F1
:100C1000EF20C076E14A93873973138504408A85B3
:100C20002310F10056C422C2EF2040753725014041
:100C3000930700F88A85130505802310F10056C438
:100C400022C2EF20A0731385044005698A85231012
:100C5000210156C422C2EF2060721385044013099B
:100C600009808A852310210122C2056952C4EF2020
:100C7000E0709305098013850440EF20207DBD4777
:100C80003ECA9167BED87C00BEDCC8003C10054B54
:100C9000BEDE22D8CAD45AC602C802CC02D202D4BE
:100CA00002D602DA02DC02DE82C082C282C482C6BE
:100CB000D2C882CA82CE82CC82D082D282D682DA56
:100CC000EF20405E85450145EF2060691305200354
:100CD000EF20B05A0145138901E7253B2312A900F3
:100CE00037040460930A300D231F54FF2933231265
:100CF000A90011332312A900FD3922052312A900EE
:100D0000DD3983574900938401E75D8D2312A900E3
:100D1000231F54FFCD312312A900F1392312A9005A
:100D2000D93922052312A900F931835749005D8D75
:100D300042054181A5672312A900938717346314E4
:100D4000F5006F1060419147231FF4FE6D3123922F
:100D5000A40055312392A400793922052392A400DE
:100D6000593983D744005D8D42054181A1672392A3
:100D7000A400938727556319F5009D67938797789B
:100D80002392F4006F10403D9D6B93879B78631412
:100D9000F5006F10603C9307400D231FF4FEA1394E
:100DA0002392A40089392392A400B1312205239211
:100DB000A400913183D7440015695D8D42054181BE
:100DC0002392A400930709316314F5006F10C03813
:100DD000231F54FF0D312392A40031392392A40024
:100DE000193922052392A400393183D74400938B0B
:100DF0006B795D8D420541812392A40063147501D6
:100E00006F108035FD77231FF4FE130AE4FF1307EC
:100E100050052311EA0013871700231FE4FE130770
:100E2000A00A2311EA0013872700231FE4FE1307FB
:100E300020052311EA0013873700231FE4FE214712
:100E40002311EA009107231FF4FE23116A019387FF
:100E50000950231FF4FE453622052392A4009389EE
:100E60001950231F34FF413E83D744009309095191
:100E70005D8D2392A4001545EF20304083D74400B8
:100E8000638437016F104035370404607D78930721
:100E9000E4FF231F04FF930E50052391D70113078E
:100EA0001800231FE4FE1307A00A2391E70093060E
:100EB0002800231FD4FE930620052391D700130694
:100EC0003800231FC4FE214E2391C701130648009A
:100ED000231FC4FE05462391C7006D77231FE4FE40
:100EE000B5462391D70093051700231FB4FE239125
:100EF000D70093052700231FB4FE6D752391D700FB
:100F00009305056013084003231FB4FE23910701D6
:100F100093051760231FB4FE2391070193052760F3
:100F2000231FB4FE2391070193050510231FB4FE70
:100F30002391D70093051510231FB4FE2391D700EA
:100F400093052710231FB4FE2391D7009305057046
:100F5000231FB4FE2391070193051570231FB4FED0
:100F60002391070193062770231FD4FE23910701C5
:100F700093060720231FD4FE239107009306172012
:100F8000231FD4FE2391070093062720231FD4FE9E
:100F900071732391070093050380231FB4FE93060A
:100FA00040022391D70093051380231FB4FE2391A1
:100FB000D70093052380231FB4FE71752391D700BA
:100FC000930505F0231FB4FE2391C7009305073056
:100FD000231FB4FEBD452391B70093081730231F8C
:100FE00014FF2391B70093082730231F14FF239188
:100FF000B70093050590231FB4FE239107019305C5
:101000001590231FB4FE2391070193052590231FFC
:10101000B4FE2391070193050750231FB4FE2391CB
:10102000C70193051750231FB4FE2391C70113076F
:101030002750231FE4FE130705202391C7018D4588
:10104000231FE4FE2391B700130705A0231FE4FE2E
:101050002391D700130715A0231FE4FE2391D70087
:10106000130725A0231FE4FE2391D700930F03C08D
:10107000231FF4FF23910700930F13C0231FF4FFD6
:10108000130780072391E700930F23C0231FF4FF6A
:1010900023910700930605D0231FD4FE2391070058
:1010A000930615D0231FD4FE2391E700130725D004
:1010B000231FE4FE23910700130705E0231FE4FE2E
:1010C00023910700130715E0231FE4FE13074006D2
:1010D0002391E700757793060710231FD4FE239111
:1010E00007009306171093083003231FD4FE2391A3
:1010F000170193062710231FD4FE239107009306A0
:101100003710231FD4FE2391070193064710231F96
:10111000D4FE2391070093065710231FD4FE130D0E
:10112000A0032391A70193066710231FD4FE2391E8
:10113000070093067710231FD4FE930CA00423917D
:10114000970193068710231FD4FE2391070093066F
:101150009710231FD4FE130CC0052391870193061B
:10116000A710231FD4FE239107009306B710231F57
:10117000D4FE930B1008239177019306C710231F09
:10118000D4FE239107009306D710231FD4FE130B20
:10119000600A239167019306E710231FD4FE239171
:1011A00007009306F710231FD4FE930A500E2391D5
:1011B000570193060711231FD4FE2391C7009306FE
:1011C0001711231FD4FE4D4A23914701930627117F
:1011D000231FD4FE2391C7009306371193094005BE
:1011E000231FD4FE2391370193064711231FD4FEFA
:1011F000930657112391C70013092008231FD4FE1B
:101200002391270193066711231FD4FE2391C70062
:1012100093067711231FD4FE9300A00C239117008F
:1012200093068711231FD4FE89462391D700130309
:101230009711231F64FE239107001303A711231F97
:1012400064FE2391D7001303B711231F64FE23917B
:10125000C7001303C711231F64FE2391D700130394
:10126000D711231F64FE239107011303E711231FE6
:1012700064FE2391D7001303F711231F64FE930329
:1012800070062391770013030712231F64FE239136
:10129000D70013031712231F64FE93024008239103
:1012A000570013032712231F64FE2391D700130353
:1012B0003712930F400A231F64FE2391F701130393
:1012C0004712231F64FE130F700B2391D7001303E3
:1012D0005712231F64FE2391E70113036712231F94
:1012E00064FE2391D70013037712231F64FE930E2D
:1012F000F00C2391D70113038712231F64FE23915F
:10130000D70013039712231F64FE130EE00D2391E1
:10131000C7011303A712231F64FE2391D7001303F1
:10132000B712231F64FE1303200F23916700930D50
:10133000C712231FB4FF2391D700930DD712231F89
:10134000B4FF930DE00F2391B701930DE712231F14
:10135000B4FF2391B700930DF712231FB4FFC14DC3
:101360002391B701930D0713231FB4FF2391B700F7
:10137000930D1713231FB4FF23911701930D271308
:10138000231FB4FF2391B700930D3713231FB4FF1E
:10139000930DD0062391B701930D0720231FB4FFAF
:1013A00023910700930D1720231FB4FF930D2720CF
:1013B00023911701231FB4FF23910700930D3720BA
:1013C000231FB4FF23910701930D4720231FB4FF70
:1013D00023910700930D5720231FB4FF2391A701EA
:1013E000930D6720231FB4FF23910700930D7720EF
:1013F000231FB4FF23919701930D8720231FB4FF70
:1014000023910700930D9720231FB4FF2391870199
:10141000930DA720231FB4FF23910700930DB7203E
:10142000231FB4FF23917701930DC720231FB4FF1F
:1014300023910700930DD720231FB4FF2391670149
:10144000930DE720231FB4FF23910700930DF7208E
:10145000231FB4FF23915701930D0721231FB4FFCE
:101460002391C700930D1721231FB4FF2391470138
:10147000930D2721231FB4FF2391C700930D37211C
:10148000231FB4FF23913701930D4721231FB4FF7E
:101490002391C700930D5721231FB4FF23912701E8
:1014A000930D6721231FB4FF2391C700930D77216C
:1014B000231FB4FF23911700930D8721231FB4FF2F
:1014C0002391D700930D9721231FB4FF2391070089
:1014D000930DA721231FB4FF2391D700930DB721AC
:1014E000231FB4FF2391C700930DC721231FB4FF0F
:1014F0002391D700930DD721231FB4FF2391070118
:10150000930DE721231FB4FF2391D700930DF721FB
:10151000231FB4FF23917700930D0722231FB4FFED
:101520002391D700930D1722231FB4FF2391570057
:10153000930D2722231FB4FF930D37222391D70049
:10154000231FB4FF2391F701930D4722231FB4FFFC
:101550002391D700930D5722231FB4FF2391E70156
:10156000930D6722231FB4FF2391D700930D772299
:10157000231FB4FF2391D701930D8722231FB4FFAC
:101580002391D700930D9722231FB4FF2391C70106
:10159000930DA722231FB4FF2391D700930DB722E9
:1015A000231FB4FF23916700930DC722231FB4FFAD
:1015B0002391D700930DD722231FB4FF930DE00F83
:1015C0002391B701930DE722231FB4FF2391B700A6
:1015D000930DF722231FB4FFC14D2391B701930D43
:1015E0000723231FB4FF2391B700930D1723231F55
:1015F000B4FF23911701930D2723231FB4FF2391D9
:10160000B700930D3723231FB4FF930DD00623910A
:10161000B701930D0730231FB4FF23910700930DEB
:101620001730231FB4FF23911701930D2730231F79
:10163000B4FF23910700930D3730231FB4FF23918C
:101640000701930D4730231FB4FF23910700930D2B
:101650005730231FB4FF2391A701930D6730231F39
:10166000B4FF23910700930D7730231FB4FF23911C
:101670009701930D8730231FB4FF23910700930D2B
:101680009730231FB4FF23918701930DA730231FA9
:10169000B4FF23910700930DB730231FB4FF2391AC
:1016A0007701930DC730231FB4FF23910700930DDB
:1016B000D730231FB4FF23916701930DE730231F19
:1016C000B4FF23910700930DF730231FB4FF930D50
:1016D000073123915701231FB4FF2391C700930DB6
:1016E0001731231FB4FF23914701930D2731231F87
:1016F000B4FF2391C700930D3731231FB4FF23910B
:101700003701930D4731231FB4FF2391C700930D79
:101710005731231FB4FF23912701930D6731231FF6
:10172000B4FF2391C700930D7731231FB4FF23919A
:101730001700930D8731231FB4FF2391D700930D1A
:101740009731231FB4FF23910700930DA731231F67
:10175000B4FF2391D700930DB731231FB4FF23911A
:10176000C700930DC731231FB4FF2391D700930DFA
:10177000D731231FB4FF23910701930DE731231FB6
:10178000B4FF2391D700930DF731231FB4FF2391AA
:101790007700930D0732231FB4FF2391D700930DD9
:1017A0001732231FB4FF23915700930D2732231FB5
:1017B000B4FF2391D700930D3732231FB4FF239139
:1017C000F701930D4732231FB4FF2391D700930DE8
:1017D0005732231FB4FF2391E701930D6732231F74
:1017E000B4FF2391D700930D7732231FB4FF2391C9
:1017F000D701930D8732231FB4FF2391D700930D98
:101800009732231FB4FF2391C701930DA732231FE3
:10181000B4FF2391D700930DB732231FB4FF239158
:101820006700930DC732231FB4FF2391D700930D98
:10183000D732231FB4FF930DE00F2391B701930D0F
:10184000E732231FB4FF2391B700930DF732231F14
:10185000B4FFC14D2391B701930D0733231FB4FF8C
:10186000930D17332391B700231FB4FF2391170162
:10187000930D2733231FB4FF2391B700930D373304
:10188000231FB4FF930DD0062391B701930D07409A
:10189000231FB4FF23910700930D1740231FB4FFAC
:1018A00023911701930D2740231FB4FF23910700B5
:1018B000930D3740231FB4FF23910701930D474039
:1018C000231FB4FF23910700930D5740231FB4FF3C
:1018D0002391A701930D6740231FB4FF23910700B5
:1018E000930D7740231FB4FF23919701930D8740F9
:1018F000231FB4FF23910700930D9740231FB4FFCC
:1019000023918701930DA740231FB4FF2391070064
:10191000930DB740231FB4FF23917701930DC74068
:10192000231FB4FF23910700930DD740231FB4FF5B
:1019300023916701930DE740231FB4FF2391070014
:10194000930DF740231FB4FF23915701930D0741D7
:10195000231FB4FF2391C700930D1741231FB4FF2A
:1019600023914701930D2741231FB4FF2391C70003
:10197000930D3741231FB4FF23913701930D474146
:10198000231FB4FF2391C700930D5741231FB4FFBA
:1019900023912701930D6741231FB4FF2391C700B3
:1019A000930D7741231FB4FF23911700930D8741B7
:1019B000231FB4FF2391D700930D9741231FB4FF3A
:1019C00023910700930DA741231FB4FF2391D70054
:1019D000930DB741231FB4FF2391C700930DC74157
:1019E000231FB4FF2391D700930DD741231FB4FFCA
:1019F000930DE74123910701231FB4FF2391D700E3
:101A0000930DF741231FB4FF23917700930D0742F5
:101A1000231FB4FF2391D700930D1742231FB4FF58
:101A200023915700930D2742231FB4FF2391D70022
:101A3000930D3742231FB4FF2391F701930D4742C3
:101A4000231FB4FF2391D700930D5742231FB4FFE8
:101A50002391E701930D6742231FB4FF2391D70021
:101A6000930D7742231FB4FF2391D701930D874233
:101A7000231FB4FF2391D700930D9742231FB4FF78
:101A80002391C701930DA742231FB4FF2391D700D1
:101A9000930DB742231FB4FF23916700930DC742F4
:101AA000231FB4FF2391D700930DD742231FB4FF08
:101AB000930DE00F2391B701930DE742231FB4FF6D
:101AC0002391B700930DF742231FB4FFC14D23911B
:101AD000B701930D0743231FB4FF2391B700930D64
:101AE0001743231FB4FF23911701930D2743231F8F
:101AF000B4FF2391B700930D3743231FB4FF930D19
:101B0000D0062391B701930D0750231FB4FF2391F3
:101B10000700930D1750231FB4FF23911701930D56
:101B20002750231FB4FF23910700930D3750231F25
:101B3000B4FF23910701930D4750231FB4FF239156
:101B40000700930D5750231FB4FF2391A701930D56
:101B50006750231FB4FF23910700930D7750231F75
:101B6000B4FF23919701930D8750231FB4FF239156
:101B70000700930D9750231FB4FF23918701930D06
:101B8000A750231FB4FF930DB75023910700231FC5
:101B9000B4FF23917701930DC750231FB4FF239106
:101BA0000700930DD750231FB4FF23916701930DB6
:101BB000E750231FB4FF23910700930DF750231F15
:101BC000B4FF23915701930D0751231FB4FF2391B5
:101BD000C700930D1751231FB4FF23914701930DA5
:101BE0002751231FB4FF2391C700930D3751231FA3
:101BF000B4FF23913701930D4751231FB4FF239165
:101C0000C700930D5751231FB4FF23912701930D54
:101C10006751231FB4FF2391C700930D7751231FF2
:101C2000B4FF23911700930D8751231FB4FF239115
:101C3000D700930D9751231FB4FF23910700930DF5
:101C4000A751231FB4FF2391D700930DB751231F32
:101C5000B4FF2391C700930DC751231FB4FF2391F5
:101C6000D700930DD751231FB4FF23910701930D84
:101C7000E751231FB4FF2391D700930DF751231F82
:101C8000B4FF23917700930D0752231FB4FF2391D4
:101C9000D700930D1752231FB4FF23915700930DC4
:101CA0002752231FB4FF2391D700930D3752231FD0
:101CB000B4FF2391F701930D4752231FB4FF2391E3
:101CC000D700930D5752231FB4FF2391E701930DC3
:101CD0006752231FB4FF2391D700930D7752231F20
:101CE000B4FF2391D701930D8752231FB4FF239193
:101CF000D700930D9752231FB4FF2391C701930D73
:101D0000A752231FB4FF2391D700930DB752231F6F
:101D1000B4FF930DC75223916700231FB4FF239193
:101D2000D700930DD752231FB4FF930DE00F2391DB
:101D3000B701930DE752231FB4FF2391B700930D12
:101D4000F752231FB4FFC14D2391B701930D0753E1
:101D5000231FB4FF2391B700930D1753231FB4FF24
:101D600023911701930D2753231FB4FF2391B7002D
:101D7000930D3753231FB4FF930DD0062391B70162
:101D8000930D0760231FB4FF23910700930D176085
:101D9000231FB4FF23911701930D2760231FB4FF66
:101DA00023910700930D3760231FB4FF2391070190
:101DB000930D4760231FB4FF23910700930D5760D5
:101DC000231FB4FF2391A701130D6760231FA4FFF6
:101DD00023910700130D7760231FA4FF2391970120
:101DE000930C8760231F94FF23910700930C976047
:101DF000231F94FF23918701130CA760231F84FFE7
:101E000023910700130CB760231F84FF23917701F0
:101E1000930BC760231F74FF23910700930BD760B8
:101E2000231F74FF23916701130BE760231F64FFD7
:101E300023910700130BF760231F64FF23915701C1
:101E4000930A0761231F54FF2391C700930A176168
:101E5000231F54FF23914701130A2761231F44FFC7
:101E60002391C700130A3761231F44FF23913701D1
:101E700093094761231F34FF2391C70093095761DA
:101E8000231F34FF2391270113096761231F24FFB8
:101E90002391C70013097761231F24FF23911700A3
:101EA00093008761231F14FE930097612391D7004D
:101EB000231F14FE239107009300A761231F14FE24
:101EC0002391D7009300B761231F14FE2391C7000D
:101ED0009300C761231F14FE2391D7009300D7619D
:101EE000231F14FE239107011308E761231F04FF3A
:101EF0002391D7001308F761231F04FF2391770074
:101F000013080762231F04FF2391D70013081762E9
:101F1000231F04FF2391570013082762231F04FF88
:101F20002391D70013083762231F04FF2391F70181
:101F300013084762231F04FF2391D7001308576239
:101F4000231F04FF2391E70113086762231F04FF87
:101F50002391D70013087762231F04FF2391D70131
:101F600013088762231F04FF2391D7001308976289
:101F7000231F04FF2391C7011308A762231F04FF37
:101F80002391D7001308B762231F04FF2391670032
:101F90001308C762231F04FF2391D7001308D762D9
:101FA000231F04FF930DE00F2391B7011308E7628D
:101FB000231F04FF2391B7001308F762231F04FFB8
:101FC000C14D2391B70113080763231F04FF239119
:101FD000B70013081763231F04FF23911701130889
:101FE0002763231F04FF2391B70013083763231FC0
:101FF00004FF930DD0062391B7017D78231F04FFC2
:10200000930E50052391D701930F1800231FF4FF5F
:10201000130FA00A2391E701930F2800231FF4FF59
:10202000130F20052391E701130F3800231FE4FF4E
:10203000214E2391C7011108ED78231F04FF23913E
:10204000070013880810231F04FF1308C00C2391F6
:10205000070113881810231F04FF2391070013881A
:102060000860231F04FF1548239107011388087097
:10207000231F04FF1308000723910701938818709A
:10208000231F14FF71732391070113080380231F7B
:1020900004FF2391C70013081380231F04FF23911B
:1020A000B70013082380231F04FF2391B7001305F3
:1020B0003580231FA4FE2391B700930503C0231F7F
:1020C000B4FE2391D700930513C0231FB4FE2391C0
:1020D0000700130623C0231FC4FE23910700130625
:1020E0000790231FC4FE1306000D2391C70013069B
:1020F0001790231FC4FE2391D70093062790231F18
:10210000D4FE930600052391D70013063790231FB2
:10211000C4FE2391D70013074790231FE4FE0D69E7
:102120002391D70013070950231FE4FE1167239161
:102130000700130707A0231FE4FE2391D70185673B
:1021400093870710231FF4FE1305800713090990D6
:10215000EF10D00F231F24FF03D74400A5679387F8
:1021600017346300F702ED77938707CFBA9793F799
:10217000F7DFC207C18391C7896793873796631FCB
:10218000F700C2577D771307F70FF98F225793E7B0
:1021900007403ED8419B136747003AD40545EFE01E
:1021A0001F9A371501409165130505C0EF10C0292E
:1021B00021651305C5D7EFE03F9DFA506A54DA5404
:1021C0004A59BA592A5A9A5A0A5BFA4B6A4CDA4C5B
:1021D0004A4DBA4D29618280231F54FFEFE0BF8131
:1021E0002392A400EFE03F812392A400EFE0BF80A0
:1021F00022052392A400EFE01F8083D744005D8D69
:1022000042054181A9672392A40093876780E30573
:10221000F5F49307100A231FF4FEEFE0CFFD23929D
:10222000A400EFE04FFD22052392A400EFE0AFFCF5
:1022300083D74400130919765D8D420541812392AD
:10224000A400631725018967938737966FE05FB312
:10225000631435016FE05FC301B7138701E783564D
:102260004700156713070751938701E76396E60454
:1022700003D7A700B706046093588500239FE6FEA6
:1022800005074207239016014183239FE6FE13753D
:10229000F50F2390A60003D7C70013D5850093F54B
:1022A000F50F239FE6FE050742072390A600418312
:1022B000239FE6FE2390B60083D68700B70704600D
:1022C000239FD7FE2390C70082801D7193F776006D
:1022D0006AD8B337F0002E8D93D53600AE9793D5DC
:1022E0001600B387B702A2CC130406FE1374F40FD2
:1022F0003146A6CA93044002CAC8CEC6D2C493F7D8
:10230000F70F3EC6931764003ECA931744003EC8B9
:10231000B307C402D6C22D69A969296AA56A5EDE1F
:1023200062DC66DA86CEB3049402DAC06ED6AA8C7A
:102330003EC46A8C814B130909CD938949F7130A6E
:102340004A98938A0A51B24713F6FB0F6361F6026B
:10235000F6406644D6444649B649264A964A064B54
:10236000F25B625CD25C425DB25D25618280314687
:10237000639EC606A2473386FB005696930E8C00DA
:1023800003440600939D0E0193DD0D011316840195
:1023900061866355060803D6A181E28566853ACE3B
:1023A00036CC653DE246724793071C00139C07013B
:1023B000938701E703D6270013181400135C0C0160
:1023C0001374F80FE376CCF83306AC416315D606E8
:1023D00013831C0083D701E7931C030193DC0C01DA
:1023E000E3F8FCF6EA8D850B6E8CB1BF414663972E
:1023F000C600C2473386FB00529649B761466396D2
:10240000C60033869B004E9695BF13060002E391EB
:10241000C6F4D2473386FB004A968DB751F7B7070B
:10242000002003D6071FE28566853ACE36CC3535C7
:102430007247E24695BFE39B8DF575B739712A96D1
:10244000AE964AD84ED6131906019399060122DC9E
:1024500026DA52D456D25AD05ECE06DEAE84135956
:10246000090193D909013A8A135B17002A84930A58
:10247000E005937BF50F03C60700130706FE1377ED
:10248000F70F63FDEA00F2506254D2544259B25938
:10249000225A925A025BF24B2161828063662401C8
:1024A000D294C2045E84C1803EC6E3FE34FD228520
:1024B0000547D286A685113DB2475A944204418011
:1024C000850755BF797126D24AD0B384B640330907
:1024D000A640050985044209C20422D44ECE52CC3E
:1024E00056CA06D6AA892E8A13590901C180014409
:1024F000B70A0460636B9400B2502254925402599C
:10250000F249624AD24A45618280B3054401C2055C
:10251000C1814E853AC6EFE02FD2EFE00FD13247AE
:10252000814763E62701050442044180E1B785073E
:10253000C2072390EA00C183EDB7397122DC26DAA5
:102540005AD05ECE66CA06DE4AD84ED652D456D28D
:1025500062CC6AC86EC63304A6402A8BAE8CB384A4
:10256000B640854B63478000814B01C43304C540AE
:10257000FD5B054C63479000014C81C4B384D5409A
:102580007D5C2289635394002689416D814A014A0A
:102590008149930D19007D1D63D13D03F2506254B2
:1025A000D2544259B259225A925A025BF24B624CAF
:1025B000D24C424DB24D2161828093950C0113158E
:1025C0000B016A86C1814181229A4139A69A6355DD
:1025D0004901330A2A415E9B63555901B38A2A4156
:1025E000E29C8509C20993D909017DB7011122CC6A
:1025F0003684AE8606CE26CA4AC84EC62A89B28915
:10260000AE84253FA2864A86A6854A853D37A286A6
:102610004E86A2854A851537A2866244F240424919
:102620004E86A6854E85D244B249056139B75D71A3
:10263000A2C44EDE931716008D49416452DC56DA6F
:102640005AD85ED686C6A6C2CAC062D466D26AD03E
:102650006ECE2A8BAE8BB28AB389F940014A7D14C3
:1026600013190A0193940A0113590901C180B30790
:102670006901B38C9B40C207C20CC18393DC0C017F
:10268000B38D6401338C2B413E852286E685C20DD5
:10269000420C3EC693DD0D01C936135C0C01330DAF
:1026A00079016E852286E285420D453E135D0D015E
:1026B0006E852286EA855536B247B38D7401C20D08
:1026C00093DD0D0133092B413E852286EE854209BB
:1026D000693613590901B3049B402286EE854A8569
:1026E000C204A53EC1802286EA852685BD362286A3
:1026F000E6854A859D362286E2852685B93E050A0D
:1027000063D7090293172A009907BE99E3DA4AF5BD
:10271000B640264496440649F259625AD25A425B60
:10272000B25B225C925C025DF24D61618280B30714
:102730005A418A07A907BE99FD1AC9BF130101C8EA
:102740000945232E1136232C8136232821373714AF
:1027500001402326313723244137232251372320B8
:102760006137232C8135232A9136232E7135232A74
:102770009135EF00904EEF003012EF10802AEF10ED
:10278000600AEFE02FA3A16513050480EF00104C51
:1027900013054006EF10602EA16513050480EF00BD
:1027A000B04AEFE04FC22813EFE00F9323A0018A55
:1027B00023AC018A23A40188F1221305800CEF10B9
:1027C000C02BEFD05FC00545EF10202BEFD03FD9D5
:1027D000EFD0FFC8AA8A37CC0000B7CB0000B7CC37
:1027E0000000238C0180EFD0DFDA238CA18083C727
:1027F00081810547631EF70AFD263745014085455F
:1028000013050580EF00507583C7C18A93F7F70F52
:10281000E5DF83C7E1E70547631CF708374500405C
:10282000854513050540EF00307393050C4913856A
:102830000183EFD0BFEA05651305459CEF10E02347
:10284000081BEFD0BFEA1306001A0C1B0A85EF1015
:1028500000488A852813EFE0CF881306001A0C1B66
:102860000A85EF10C0460A8591290C1B13858B49F8
:10287000EF100069EFD0BFBE9307A0193305554193
:102880003355F5021306001A0C1B23ACA18A0A85E6
:10289000EF10E0430A85EFD01FC519E1EF00A06AF1
:1028A00083A7818B2386018A238F01E623A4F188E5
:1028B00083C7818109476317F70A592937450140C2
:1028C000854513050580EF00306983C7C18A93F7FA
:1028D000F70FE5DF83C7E1E705476315F7083745DD
:1028E0000040854513050540EF00106793858C4B2C
:1028F00013850183EFD09FDE05651305459CEF101E
:10290000C017081BEFD09FDE0C1B2813EFE06F826F
:102910001306001A0C1B0A85EF10603B0A85152967
:102920000C1B13858B49EF10A05DEFD05FB39307AD
:10293000A019330555413355F5021306001A0C1B37
:1029400023ACA18A0A85EF1080380A85EFD07FBDBD
:1029500011E1D52B83A7818B2386018A238F01E682
:1029600023A4F18883C7818183C7818111476314C0
:10297000F7002813C52683C781811547E313F7E6BF
:102980001120A1BD4111014506C622C4EFE0CF9F31
:102990007D57239DE1802167130707439306801C21
:1029A0001306802FE14513058002EFF0BFB19306B7
:1029B000801C5146E1455145EFF03FB89306C01DDC
:1029C0001306802F9305C01D13058002EFF0FFB69C
:1029D00091461306802F914513058002EFF0FFB555
:1029E0009306801C1306C030E1451305C030EFF09C
:1029F000DFB49306801C1306802FE1451305800287
:102A0000EFF0DFBE5146E145130580020D3151461E
:102A10009305801C13058002193951469305801CCB
:102A20001305802F29315146E1451305802FEFF022
:102A30001FC0B7C700009387875113070002930692
:102A4000000213060012930580021305A00FEFF099
:102A5000FF9E3164130784619306E0111306E010B2
:102A60009305600A1305C003EFF0DFA51307846127
:102A70009306E0111306901F9305600A1305701268
:102A8000EFF05FA4130784619306E0111306402E54
:102A90009305600A13052021EFF0DFA2130784617C
:102AA0009306F01A1306E010930570131305C00384
:102AB000EFF05FA1130784619306F01A1306901FCD
:102AC0009305701313057012EFF0DF9F13078461F5
:102AD0009306F01A1306402E930570131305202158
:102AE000EFF05F9EB7C700009387C752130700023D
:102AF00093060002130600059305800C130540069B
:102B0000EFF0DF93B7C70000938747531307000226
:102B100093060002130600089305800C13050014A9
:102B2000EFF0DF91B7C70000938707541307000247
:102B300093060002130600059305800C1305A023DD
:102B4000EFF0DF8F37C400009307845413070002AF
:102B500093060002130600059305000F1305802558
:102B6000EFF0DF8DB7C7000093870755130700020A
:102B700093060002130600099305901513054006FD
:102B8000EFF0DF8B930784541307000293060002D3
:102B9000130600059305101813052008EFF01F8A8F
:102BA000B7C700009387C7551307000293060002BA
:102BB000130600069305901513050014EFF01F8807
:102BC0002244B240B7C7000093874756130700025C
:102BD0009306000213060006930590151305A02323
:102BE00041016FF0BF854111014506C6EFD0DFF905
:102BF0007D57239DE1802167130707439306801CBF
:102C00001306802FE14513058002EFF0BF8B93067A
:102C1000801C5146E1455145EFF03F929306C01D9F
:102C20001306802F9305C01D13058002EFF0FF905F
:102C300091461306802F914513058002EFF0FF8F18
:102C40009306801C1306C030E1451305C030EFF039
:102C5000DF8E9306801C1306802FE145130580024A
:102C6000EFF0DF985146E14513058002EFF03F9CFD
:102C700051469305801C13058002EFF05F9B51467F
:102C80009305801C1305802FEFF07F9A5146E14594
:102C90001305802FEFF0BF99B240B7C700009387AC
:102CA000474C13070002930600021306000B93051E
:102CB00080021305A00F41016FF04FF81971A2DCDB
:102CC0002A8441657D1586DEEFD01FEC316713073E
:102CD00087619306000F130680259305800713056F
:102CE000800CEFF02FFE2285EF10402F13164500C9
:102CF0004206A28713070002418293060002930551
:102D0000400B1305800CEFF06FF38346540637C673
:102D100000001306C64B930540066800EF1000251F
:102D20007C001307000293060002130600059305BA
:102D3000800C1305800CEFF06FF00565130505FAA4
:102D4000EF00B053EFF01FC4F65066540961828063
:102D500059BDADB7697123248112232E3111232C63
:102D60004111232A511123261112232291122320CB
:102D700021132328611123267111034905004041C5
:102D8000B7CA0000B7C9000037CA0000A94763E806
:102D900027036310091A8320C1120324811283249C
:102DA0004112032901128329C111032A8111832AA7
:102DB0004111032B0111832BC110556182809304B3
:102DC0001009130BF01E5DC49306640613860A4EA9
:102DD000930500100A85EF1060190A85EF10002096
:102DE0001316450042068A8713070002A685418212
:102DF0009306000213052003EFF04FE483464419C5
:102E00001386494F930500100A85EF1020160A8596
:102E1000EF10C01C1316450042068A8713070002F4
:102E2000A68541829306000213050019EFF00FE119
:102E30009306C40C13064A50930500100A85EF1040
:102E4000E0120A85EF10801913164500A6859384B9
:102E500034024206C20441828A87130700029306A5
:102E600000021305401FC180EFF04FDD03248419D9
:102E7000E39B64F559191379F90F09BFB38449032A
:102E80009306640613860B4E930500100A85EF1017
:102E9000E00D0A85EF108014131645004206938456
:102EA000E406C204C1808A871307000241829306A8
:102EB0000002A68513052003EFF04FD8834644197E
:102EC00013864A4F930500100A85EF10200A0A85E1
:102ED000EF10C0101316450042068A871307000240
:102EE000418293060002A68513050019EFF00FD565
:102EF0009306C40C13064B50930500100A85EF107F
:102F0000E0060A85EF10800D131645004206418247
:102F10008A871307000293060002A6851305401F47
:102F20008509EFF0AFD103248419E34639E739F47A
:102F30009DB58549B7CB0000130A3002B7CA00001F
:102F400037CB0000EDB7416541117D1506C6EFD0C6
:102F5000BFC33167130787619306000F13068025EF
:102F6000930580071305800CEFF0CFD5B7C700009D
:102F70009387074D13070002930600021306000D06
:102F80009305400B1305800CEFF04FCB056513053F
:102F900005FAEF00902EB24041016FF0BF9EB717C7
:102FA00002409843B706FFF841111367170098C312
:102FB000D84337060200758FD8C39843B706F7FE8B
:102FC000FD16758F98C39843B706FCFFFD16758FE5
:102FD00098C3D843B70681FFFD16758FD8C39843B1
:102FE000B70600ECFD16758F98C33707FF0098C72A
:102FF00023A6070202C402C69843C166558F98C330
:10300000B716024005679C42F18F3EC6A24785076E
:103010003EC4B24781E7A247E397E7FEB7170240F5
:103020009C431397E7006357070685473EC6324720
:103030008547631FF704B7170240D843B706C1FF9F
:10304000FD16D8C3D843D8C3D84313670740D8C3A5
:10305000D843758FD8C3D843B7061D00558FD8C342
:103060009843B7060001558F98C39843931667009D
:10307000E3DD06FED843B7160240719BD8C3D843A0
:1030800013672700D8C32147DC42B18BE39EE7FEDC
:103090004101828002C661BF371602405C42914600
:1030A000B18B138741806385D700A1466389D7021E
:1030B000B7177A00938707201CC3B7170240DC4379
:1030C000918393F6F700B707002093870700B69720
:1030D00083C607001C43B3D7D7001CC38280544269
:1030E0005042C167C982BD8A7D8E9387260085CAFA
:1030F000BD466389D702C1466389D702C54581466B
:103100006393B700C1470DE637163D0013060690DE
:10311000B387C7021CC3D5D21C43858371BF8146C8
:10312000C947D5B78546B547F9BF8146BD47E1BF19
:103130003716024050429315E600E3C705FC3716E8
:103140007A0013060620E9B701A001A001A001A0A2
:1031500001A001A001A001A001A001A001A001A067
:1031600001A001A001A001A001A001A001A001A057
:1031700001A001A001A001A001A001A001A001A047
:1031800001A001A001A001A001A001A001A001A037
:1031900001A001A001A001A001A001A001A001A027
:1031A00001A001A001A001A001A001A001A001A017
:1031B00001A001A001A001A001A001A001A001A007
:1031C00001A001A001A001A001A001A001A001A0F7
:1031D00001A001A001A001A001A001A001A001A0E7
:1031E00001A001A001A001A001A001A001A001A0D7
:1031F00001A001A001A001A001A001A001A001A0C7
:1032000001A001A001A097D1FF1F9381A17E1751BA
:103210000020130121DF17A500001305658497D551
:10322000FF1F938525DE1386818163FAC500832203
:10323000050023A0550011059105E3EAC5FE13859D
:103240008181938581E86377B5002320050011050E
:10325000E36DB5FEFD42739002BCFD427390428067
:10326000B76200009382820873A0023097D2FFFFFA
:103270009382C2DC93E2320073905230EFF03FD27F
:1032800097F2FFFF9382C24B739012347300203089
:103290001C4189C593E717001CC1828041677917DB
:1032A000F98FDDBF14455C4158450328C502D58F11
:1032B000D98F1849370600A0D98F5849D98F184D92
:1032C000D98F584DD98F1851D98F5851D98F18553A
:1032D000D98F1859B3E70701D98F18410A073A96D1
:1032E0001CC2A1476396F6001C4293E707041CC268
:1032F00054598C4E9C42CD8FCC429205CD8F8C463A
:10330000A205CD8FCC46C205CD8F8C4AD44AD205BA
:10331000CD8FE206D58F5CC291676319F802145D08
:10332000904E9C42D18FD0421206D18F90462206F9
:10333000D18F904AD44A5206E206D18FD58FB70674
:1033400000A09386461036971CC38280B70700A062
:10335000938747103E97B7070010FD17F5B7B707DB
:1033600000A00A053E951C4189C593E717001CC1C2
:103370008280370710007917F98FD5BF9C4513F766
:10338000070113F8F70001C7D8413368E80083D577
:10339000050013F7F50F39C318418146854E3D4F9F
:1033A000930F800293028004214E3396DE00B3F81F
:1033B000C500631116039398260033131F011343AE
:1033C000F3FF3377E300B318180133E7E800639F96
:1033D000F70550C98506E39AC6FD18C11307F00F1B
:1033E0006375B70454412146854E3D4F930F8002CB
:1033F00093028004414EB398CE0033F715016392D7
:10340000E8021317260001173313EF001343F3FFED
:10341000B376D3003317E800D98E639DF701232AD2
:1034200015010506E319C6FD54C18280E39457FADD
:1034300010C94DB7E39757FE23281501DDB708459E
:103440006D8D3335A00082800CC982804CC982808A
:1034500019C20CC982804CC9828023AEA1808280AF
:103460009387C18194430347050089E6834725007C
:10347000920731A8944305466391C604834725000B
:103480000346150092076314D60093E707F8B7E6E2
:1034900000E093F7F70FBA962380F64085469357DE
:1034A00057003397E6005441ADC6938707048A0757
:1034B000B7E600E0B69798C382808C438946639351
:1034C000D50283461500834725006365D6008A062A
:1034D000B69779BF9386E6038A06B69793F7F70FF8
:1034E000920765B790438D46631ED600834615004C
:1034F000834725006364D6008606D9BF9386C60736
:103500008606E1BF94439147E39AF6F88347150096
:1035100085B79387070661BF371702405C43914622
:10352000B18B6385D700A1466386D706B7177A00AB
:10353000938707201CC1371602405C4237070020E2
:10354000130707019183BD8BBA9783C607001C41FF
:10355000B3D7D7005CC15442A1829D8ABA9683C674
:103560000600B3D6D70014C55442AD829D8A369763
:1035700003470700B3D7E7005CC558423983937609
:10358000370013878180369703470700B3D7E702D8
:103590001CC982805C4354434167C983F98E37F765
:1035A000FF1F0327C770BD8B8907131617016348D8
:1035B0000600454601476392C702C94739A8094733
:1035C0006389E7023D476388E70241476388E70272
:1035D000454601476393C700C14785E6B7460240A9
:1035E00083A60680C18A8DC6B7167A009386062008
:1035F00025A00147D9B70547B547C5B70147BD471E
:10360000E9BFB7160240D4421396E600E35E06FC1B
:10361000B7163D0093860690B387D7021CC101DF21
:103620001C41858301BF99C5371702405C4B5D8DF6
:1036300048CB8280B7170240D84B1345F5FF798DF0
:10364000C8CB828099C5371702401C4F5D8D08CFCB
:103650008280B7170240984F1345F5FF798D88CFC8
:10366000828099C5371702405C4F5D8D48CF8280BC
:10367000B7170240D84F1345F5FF798DC8CF828028
:1036800083560501F577FD17F58F83D665003971EF
:1036900022DC06DED58F03D7C5002318F50083563C
:1036A000C500FD779387379FF58F83D645002A8421
:1036B0002EC6D58F83D68500D58F83D6A500D58F0E
:1036C0002316F50083574501C207C18393F7F7CF4F
:1036D000D98F231AF50068088135B74701409387D1
:1036E0000780B245631EF404A2578356C4006547A1
:1036F000B387E702C206C186984163D50604060770
:103700000356C4004206B3D7E702130740064186BA
:10371000B3D6E702B3F7E7029206635706028E07B5
:1037200093872703B3D7E70213F77700B367D70070
:10373000C207C1832314F400F250625421618280D5
:10374000925765B70A076DBF920793872703B3D7D0
:10375000E702BD8BD58FE9BF81C98357C5000967D3
:10376000D98F2316F50082800357C500F977FD171E
:10377000F98FC5BF13F7F50F85471583B395B700CC
:103780006319F7009307C500984301CED98D8CC308
:103790008280894693074501E318D7FE9307050108
:1037A000E5B793C5F5FFF98DDDB793F5F51F231246
:1037B000B5008280035545001375F51F82800355BF
:1037C00005006D8D3335A000828013F7F50F854617
:1037D0001583B397B6006313D7020357C500F98F5B
:1037E0000357050001454207418381CB0545A1816F
:1037F000B315B5006D8F3335E000828089466315BF
:10380000D70003570501E1BF03574501C9BFA18197
:103810008547B397B70093C7F7FFC207C18323104B
:10382000F500828059718545114586D6A2D4A6D26D
:10383000CAD0CECE013D8545370502001D358545F0
:103840001165093537140140930700208D496149FE
:103850002C0813050480231CF1004ECE4AD0EFF053
:10386000FFB19307004091442C0813050480231CEA
:10387000F10026D0EFF09FB04C1013050480231206
:1038800091024ED44AD6EFF07FAFA1474C101305FA
:1038900004802312F10226D67164EFF03FAEB744E4
:1038A00000401304042037090C008C0013850440E9
:1038B000A2C0CAC482C223160104D93322D8374415
:1038C00001400C18130504804ADC02DA231E0102B1
:1038D000453B9307501305492314F1002800854701
:1038E0002305F1004AC6EFF0BFB79307601308083D
:1038F0002318F100230921014ACAEFF07FB613050E
:103900000480054693055052B5350546138504409D
:10391000930550528535370902401305090885453E
:10392000EFF01F971305C9068545EFF07F96130545
:10393000048085451535138504408545313DB650D5
:10394000265496540659F64965618280411122C673
:10395000374401409305505213050480BD3535C9E5
:1039600093055052130504805D3513050480993585
:103970002390A1E8D52C03D601E8329583471500A2
:103980008D8B9DC71387018283470700FD4663E146
:10399000F6028347070093F6F70F9387160093F715
:1039A000F70F2300F70093870183B6972380C700A2
:1039B000A9476310F60223800182854737450140FD
:1039C000238FF1E68145130505802386F18AEFF008
:1039D000BFD83244410173002030411122C6374420
:1039E00000409305505213050440C5331DC513050F
:1039F0000440EFF03FDC838781E6930550529386C5
:103A000017002384D1E63707002013078745BA97AC
:103A10002380A70013050440DD3B324441017300BD
:103A20002030B707002083A7471F37177A001307F6
:103A30000720B3D7E70293F7F70F2382F18213072A
:103A4000803EB387E7022391F1828280B7F700E0DE
:103A5000D8438146799BD8C303C741823306A70266
:103A600090CBD4CB98431367170398C3D843058BE7
:103A700075DF9843799B98C38280B7F700E0D843FD
:103A80008146799BD8C303D721823306A70290CB06
:103A9000D4CB98431367170398C3D843058B75DFBE
:103AA0009843799B98C38280011126CAB74400408D
:103AB00022CC4AC84EC606CEAE89328901449384D0
:103AC0000440634A2401F24062444A85D244424998
:103AD000B24905618280930500042685EFF03FCE50
:103AE0007DD9B38789008385070026850504C20533
:103AF000C181EFF09FCBF1B71387C1801C43938640
:103B000081E83E95636BD500B786002093860680DA
:103B100063E5A60008C33E858280FD57EDBF1357BD
:103B20007501370680009307F6FF1377F70F9305AB
:103B3000E007B3F6A7009357F501014563F4E500EC
:103B400099C3828082809307E0097D55E3EBE7FE0D
:103B500093055009B3E7C60063D7E5001307A7F63E
:103B60003395E7008280130560093307E54033D5BC
:103B7000E7008280411122C406C697C7FFFF9387E2
:103B800067482A8491C7814597000000E70000003C
:103B90009387418188431C5591C382972285EF50BA
:103BA000A07B011122CC26CA4AC806CE4EC652C4FA
:103BB000AA842E89328409C51C4D99E3EF10007D3B
:103BC000979700009387C7B96310F402C0408357EA
:103BD000C400A18B95CB1C4885CBFD59294A834550
:103BE0000900A9E101453DA097970000938747B9D7
:103BF0006314F4008044E1BF97970000938747B4B3
:103C0000E317F4FCC044E1B7A2852685EF1000411C
:103C100069D57D55F2406244D2444249B249224AB4
:103C2000056182801C440509FD171CC463D7070089
:103C3000184C63CBE700638945011C4013871700CC
:103C400018C02380B70061BF22862685EF10002FA1
:103C5000E31735F97DBF938701812E86AA858843B6
:103C600089B70325C50E8280938701819C439C53AD
:103C700089E797C7FF1F9387E74003A5C70E828098
:103C800093870181AA85884355A293870181AA85DC
:103C90008843CDA885E141116C00014511CA7955D1
:103CA00081CA834706009CC1034506003335A00046
:103CB00041018280014519CA795589CA83470600A6
:103CC0009CC1034506003335A00082808280B3C7C3
:103CD000A5008D8B3307C50081E78D4763EEC700D4
:103CE000AA876370E50A83C6050085078505A38F4B
:103CF000D7FEE3EAE7FE828093763500AA8791CA71
:103D000083C6050085078505A38FD7FE93F6370088
:103D1000FDB79376C7FF138606FE63F0C70683A33D
:103D2000050083A2450083AF850003AFC50083AEC5
:103D3000050103AE450103A3850183A8C501938551
:103D4000450223A0770003A8C5FF23A2570023A4A0
:103D5000F70123A6E70123A8D70123AAC70123ACB3
:103D6000670023AE17019387470223AE07FF75B79D
:103D700090419107910523AEC7FEE3EBD7FEE3E444
:103D8000E7F68280DDC183A7C5FF411122C406C6C4
:103D900026C21384C5FF63D307003E94AA84EF10A4
:103DA000907A938781829C4381EF2322040023A48D
:103DB00081822244B2402685924441016F10D0781E
:103DC000637EF40014403307D4006396E700984301
:103DD000DC43369718C05CC0D9BFBA87D84319C333
:103DE000E37DE4FE94433386D700631F86001040D2
:103DF000B29694C33386D700E31DC7FA10435843E5
:103E0000B29694C3D8C375B76375C400B1479CC05C
:103E10004DB71040B306C4006316D700144358438F
:103E2000B29614C058C0C0C369B78280011126CAB7
:103E300093843500F19806CE22CC4AC84EC6A10420
:103E4000B14763F3F404B14463E2B4042A89EF1088
:103E5000906F9387818298433A8439E09387C18237
:103E60009C4391E781454A85E92823A6A182A6853E
:103E70004A85C128FD5963193507B1472320F90048
:103E80004A85EF10706C29A0E3D004FCB1471CC137
:103E90000145F2406244D2444249B2490561828000
:103EA0001C40858F63CF0702AD4663F6F6001CC049
:103EB0003E9404C031A05C406313870223A4F182C6
:103EC0004A85EF1070681305B400930744006199A8
:103ED0003307F5405DDF3A94898F1CC05DBF5CC33A
:103EE000C5B72287404095BF130435007198E3029F
:103EF00085FCB305A4404A85A920E31C35FBB5BF6A
:103F000039713EDA2ED232D436D63AD842DC46DE89
:103F10009387018122CC804326CA06CEAA8411C48D
:103F20001C4C81E72285EF1060460C445410268615
:103F3000228536C6EF20703AF2406244D2442161B5
:103F40008280411122C42A842E8523A201E806C65C
:103F5000EFF09FBAFD576317F500938741E89C4344
:103F600091C31CC0B24022444101828035713ECBD6
:103F7000A6DA36C73AC942CD46CF9387018186DE9D
:103F8000A2DC844363DB05009307B0089CC07D5529
:103F9000F6506654D6540D61828093078020231A10
:103FA000F1002AC42ACC814799C19387F5FF3EC806
:103FB0003ECE7401FD572E8426852C00231BF10074
:103FC00036C2EF20B002FD576355F5009307B008E5
:103FD0009CC05DDCA247238007005DBFAA878507E0
:103FE00003C7F7FF6DFF3385A7407D158280034728
:103FF000050083C7050001E791C301458280814721
:1040000001A88347150013071500E5DB81473A85B2
:104010003387F5000347070075D3B306F50083C661
:104020000600E390E6FE85072A87D5B7011122CC6A
:104030002A872E843A85A28532C606CEEF20C03D5F
:1040400032462A88AE8805C651801374F47F9307E0
:10405000B006818F635DF000D2073707F03F01485B
:104060003E974286BA86EF4040242A88AE88F240C6
:1040700062444285C6850561828035714AC92A89B4
:10408000368532D436C606CF22CD26CB4EC7EAD8E7
:10409000EED62E8D52C556C35AC1DEDEE2DCE6DA1C
:1040A00082C8EF10303AAA8D0841814401443D375F
:1040B000B246AA89EAC635469305B0021305D00276
:1040C00013080002A548B64703C70700636BE6085C
:1040D000637F17095DC702C8364A93070003814A08
:1040E00003470A00631DF71283471A001307800570
:1040F0006388E70013068007130700036397C71060
:10410000C24736889808D408178600001306064D63
:10411000EC004A85EF10604A93797500AA8A63889B
:10412000090099476398F906050AD2C602C8A25742
:1041300081C7B64722571CC3C247A1CBB705008031
:10414000A18DFA406A4426854A49DA44BA492A4A86
:104150009A4A0A4BF65B665CD65C465DB65D0D61BD
:1041600082806309B7006304A702E31607F7850797
:10417000BEC691BF02C813871700BAC683C717000F
:10418000A1FFA257EAC602C8CDF7A2855DBF0547C9
:104190003AC8D5B7464611CA93055003A808EF2080
:1041A000C04BC6454A85EF101043FD19914763EE99
:1041B0003701178700001307A73C8A09BA9983A71C
:1041C0000900BA978287E644764493FA8A00E3802E
:1041D0000AF6B70700805D8C99BFF6453704F0FFFB
:1041E0007D14B3F785005644E64413043443931515
:1041F000440133E4B700D1BF3704F07FF9B7B70506
:10420000008013C4F5FFFD54C9B7B6479386170065
:10421000B6C683C71700E38AE7FE91DB854AB64C32
:10422000014A814B014CA546A145A9473645034BA0
:10423000050013070BFD1376F70F63FDC60483A576
:104240000D004E86EF20F07A3DC1DA87E28D81467F
:10425000014B0145130750066387E700130750041D
:1042600081496399E71663960D00B3E7560191DB28
:10427000814D364D1307B00293071D00BEC683471C
:104280001D006382E70E1307D00201486393E70E17
:104290000548D9A863C98501B38BFB02BA9B050504
:1042A000050CAAC661B7330AFA023A9ACDBF364561
:1042B00081464E95AAC683470500630D0C06014B47
:1042C000E28D138707FD25466376E602054559B75B
:1042D000B647850613861700B2C683C71700E38961
:1042E000E7FE1387F7FC2146E36AE61EB64C368BE1
:1042F000814D8146938707FD1387160085C73A9B3A
:104300003385B6016E872148C14829466317A70245
:10431000850DB69DA14663CFE6022947B38BEB021C
:104320000147BE9BB64793861700B6C683C71700E2
:10433000BA8641BF130700035DB7930517006346B4
:10434000E800B38BCB022E87D1B7E3CEB8FE330A99
:10435000CA02D5BFC1460147E3C6B6FDA946330A26
:10436000DA023E9AC1B7014893072D00BEC68347C3
:104370002D00138707FD25466367E60C130700032E
:104380006386E70A1387F7FC214681496364E604E4
:10439000B648138707FD2543294EB64713861700F5
:1043A000B2C683C71700938507FD93F5F50F6376B3
:1043B000B3089569330616419389F9E1A148CE8582
:1043C00063C6C800BA8963D3E500AE8963040800F8
:1043D000B309304163980D0CB3E6DA00E39906D4D3
:1043E000E31105DA1307E004638AE7066340F70682
:1043F00013079004E397E7D8978500009385051D80
:10440000E800EF10206BE30E05D6B6479785000055
:104410009385051CE800FD17BEC6EF10A06901E5F5
:10442000B6478507BEC63704F07F11B3B64713867B
:104430001700B2C683C71700A1B73307C703BA97DF
:10444000138707FD99BFEAC6814969B7130790062C
:10445000E384E7FA1307E006E395E7D297850000C7
:1044600093858517E800EF10E064E30C05D0B647AC
:1044700003C70700930780026313F702B00897850C
:1044800000009385E516E800EF10C06595476318B6
:10449000F500F6453704F07FE6444D8C49B9370402
:1044A000F8FF71B1B38A694163130C006E8CC14788
:1044B0006E8D63D3B701414D5E85EF405035A54702
:1044C000AA842E8463DCB70393077DFF139737001C
:1044D000978700009387872FBA979043D443EF3094
:1044E000D05C2A845285AE84EF4070322A86AE8634
:1044F0002285A685EF205070AA842E84BD4763CD07
:10450000B709E3860AC26354500759476343570308
:104510008E0A978700009387672BBE9A03A50A002F
:1045200083A54A002686A286EF303058AA842E84BE
:10453000FDBE130750023307B741634F5705B38DD4
:10454000B741178900001309692893973D00CA975E
:104550008843CC43B38DBA412686A2868E0DEF30B8
:10456000D054CA9D03A60D0083A64D0075BFA95760
:1045700063C4FA02B3093B41139B390097890000D9
:104580009389C924DA9903A6090083A649002685E0
:10459000A285EF30605959BF338DAD41569D6357A9
:1045A000A0119377FD0099CF17870000130707220A
:1045B0008E07BA978843CC432686A286EF30F04E0A
:1045C000AA842E84137D0DFF63080D0A9307401300
:1045D00063D5A705014B814902C6814B9307200291
:1045E0002320F9003704F07F8144B247E38107B408
:1045F000C6454A85EF10207EDE854A85EF10A07DF6
:10460000CE854A85EF10207DB2454A85EF10A07C0B
:10461000DA854A85EF10207C19BE135D4D40268552
:10462000A2858147014A054897880000938888172A
:104630006346A80599C3AA842E8417870000130730
:10464000671693173A00BA978843CC433707B0FCF4
:1046500022972686BA86EF3050453704F07FB3772D
:10466000B4003707A07CAA84E366F7F63707907C8E
:10467000637AF7027D14FD54014ADDA813771D000B
:1046800011CF13173A00469710435443EF30F041CF
:1046900085470548978800009388C810050A135D70
:1046A0001D4079B7370450032E94F9B7E3060DFC8B
:1046B000330DA0419377FD0099CF178700001307B2
:1046C000E7108E07BA979043D4432685A285EF3032
:1046D000A045AA842E84135D4D40E30F0DF8FD47DD
:1046E00063DDA701014B814902C6814B930720027C
:1046F000814401442320F900CDBD137A0D016304E8
:104700000A00130AA0062685A285978700009387D2
:1047100067F0014793761D0081CA9043D4433EC69B
:10472000EF30B038B2470547135D1D40A107E313D2
:104730000DFE19C3AA842E8463050A02935744010F
:1047400013F7F77F9307B006998F635CF0007D47FE
:104750006354F7221307400381446359F720370459
:104760007003014681462685A285EF3030173DD97A
:104770005E87EE866286E6854A85EF1080732AC6DC
:10478000E30A05E493D7FA41B3093B41B3F7F900D3
:104790003ED056CE63D30A0002CEB247014B8149C8
:1047A000B1073ED8B7071000FD173ED6B2474A857D
:1047B000CC43EF108059AA8BE30205E2B247C25501
:1047C0003105904B09060A06EFF06FD0B808D408FF
:1047D0002286A6854A8526CA22CCEF109053AAC805
:1047E000E30E05DE85454A85EF101002AA89E3072E
:1047F00005DED64763C707180257724C338DE700B2
:104800006647B387474193066003BA97FD17930D38
:1048100020C0998E63D6B7193387FD407D46998EA7
:104820006346E616854DB397ED003ED2814C369C2B
:10483000B30DDD00529CEA8763D3AD01EE8763536D
:10484000FC00E2876358F000B38DFD40330CFC4060
:10485000330DFD4082576358F002CE853E864A856F
:10486000EF109010AA89E30B05D64646AA854A8523
:10487000EF10407B2ADAE30305D6C6454A85EF10E0
:104880008055D257BEC8634FB011635A500172466B
:10489000DE854A85EF10500DAA8BE30105D4635ADB
:1048A0008001DE8562864A85EF10F017AA8BE30748
:1048B00005D2635AA001CE856A864A85EF10B016EC
:1048C000AA89E30D05D0C6455E864A85EF10B0255E
:1048D0002A8BE30505D0032CC500CE8523260500D1
:1048E000EF1050216359050C336C9C0063110C12BE
:1048F0009317C400639D0710B707F07FE18F370758
:10490000B0066376F71083274B0191E703270B016D
:10491000854763DEE70EDA8505464A85EF10B0105D
:10492000CE852A8BEF10101D6353A00E630C0A1066
:10493000B707F07FE18F3707B0066345F7103707F9
:104940007003E355F7DA0147B70750392685A2858A
:104950003A86BE86EF3070152E84C98DAA84E399FD
:1049600005C8930720022320F90059B181177D570C
:10497000B317F7007D8CF5B37D57B317F700FD8CA7
:10498000CDB37247025D330CF7409DBD930C20BE42
:10499000B387FC40854CB39CFC0085473ED241BDAB
:1049A000814CE5BFC6456E864A85EF10D007AAC880
:1049B000E31D05EC25B169E9370710007D17B377D2
:1049C000E40063090C046399E7047D5763000A025D
:1049D000B707F07FE18FB706A00663E9F600D18341
:1049E0009306B006B387F6403317F7006396E402E8
:1049F000B707F07FFD176315F400FD57E380F4BEA1
:104A0000B705F07FE18D370410002E948144E31C3C
:104A10000AF2F9BEC58F99DB63820C04B3FC8C00EB
:104A2000E3870CFE52862685A285630F0C02EFF009
:104A3000EFDF2A86AE865245E245EF20F01BAA84BE
:104A40002E84F1B7B705F07FE18D3704F0FFA29512
:104A5000370410007D144D8CFD5455BF9257B3FDA3
:104A60009700E3860DFA7DBFEFF04FDC2A86AE8615
:104A70005245E245EF30F04E01468146AA842E842D
:104A8000EF30C06549F59DB1CE855A85EF10B03540
:104A900097870000938707B19043D4432A8DAE8D4A
:104AA000EF3040756342A01063010C0A814D370D51
:104AB000F03F0147B707F03FB706F07FB37CD40063
:104AC000B706E07F639FDC166AD2370DB0FC229DEB
:104AD0002685EA853EDE3ADC6EDAEF10F013D25816
:104AE00012582A86AE864685C285EF30007C26861F
:104AF000EA86EF207010AA843705F07F3376B50080
:104B0000B706A07C6257F2576365D60C62479307DD
:104B1000F5FF6396E7005247FD57E381E7ACB7071F
:104B2000F07F1384F7FFFD54C6454A85EF10A02A95
:104B3000DE854A85EF10202ACE854A85EF10A02910
:104B4000DA854A85EF10202995B1B1E0B257E18F9F
:104B5000A1E797870000938767A49043D4436A85B1
:104B6000EE85EF302069634D05029787000093873B
:104B700067A29043D4436A85EE85EF3000732A879D
:104B8000AE87370D0080BA8D334DFD0035B78547B0
:104B90006394F400E30C04B4814D370DF0BF11BFF2
:104BA0000147B707E03FF1BF978700009387879ED3
:104BB0009043D4436A85EE85EF30206F2A87AE8715
:104BC0002E8D63160C00370D0080334DBD00AA8D6D
:104BD000E5B5370450032E94E3180AF4B706F07FC6
:104BE000E18EE393DCF4BE853A853A8DBE8CEF40CE
:104BF000C02EEF40C03A2A86AE866A85E685EF3041
:104C00005036B2572A8DAE8DE18FC58F33EC8701B8
:104C1000630B0C0A978700009387C7999043D4438E
:104C2000EF30405DE346059C978700009387079926
:104C30009043D4436A85EE85EF30E050E356A0EE12
:104C400045BA630D0A04B706A00663E99605978680
:104C500000009386A6959042D4423A85BE853ADA02
:104C60003ED2EF302059925752576344A0023A8502
:104C7000BE85EF40002D11E10545EF4040392A8700
:104C8000AE872E8D63160C00370D0080334DBD00AE
:104C9000AA8DB705B0062E9D330D9D415245E245C4
:104CA0003EDA3AD2EF1040772A86AE866E85EA85E4
:104CB000EF30A05F5246E246EF200074AA842E84B3
:104CC000D257125711BF978700009387A78F904341
:104CD000D443EF302052E35905E419BA13075006C4
:104CE0006387E7001307500405456397E7EE014B20
:104CF00005456FF08FD701114AC8138901818327B9
:104D0000090006CE22CC945326CA4EC652C45AC2BB
:104D10005EC02E8689E697B6FF1F9386A636AA85C3
:104D20003E85EFF08FB5AA842E842A86AE8626852E
:104D3000A285EF40C01609CD6244F240D2444249F8
:104D4000B249224A124B824B014505616F20003E59
:104D5000A2852685EF40803E978700009387878A4B
:104D6000B709008083AB070093C9F9FF337B350196
:104D70002A8ADE855A85EF40A03829E5DE855A85E6
:104D8000EF40402F6350A004978700009387078867
:104D900003AB070083AB4700337434015A86DE86C9
:104DA0002685A285EF40A00F09E95A86DE86268572
:104DB000A285EF3020446347A00083270900130732
:104DC000200298C3F24062445285D2444249B2491B
:104DD000224A124B824B0561828079714AD04ECEB5
:104DE00006D622D426D2AA892E899304190003C498
:104DF000F4FF3A8536C632C42EC23AC0EFE07FE6F1
:104E000022958347150002479245A18B2246B24660
:104E1000C9E79307D0026314F40883C7040005436D
:104E200093042900FDC641476392E602130700037D
:104E3000639EE70083C704001307800593F7F70D0F
:104E40006394E70C83C71400C1468904B708008047
:104E50006314030093C8F8FF33FFD80201480145EB
:104E6000A54FE54EFD5233DED802138707FD63E4FC
:104E7000EF04BA8763DFD704630D58007D58636A77
:104E8000AE006314AE006346FF0005483385A602FA
:104E90003E95850483C7F4FFC9BF2689B9B7930738
:104EA000B0026305F400A2870143ADBF83C70400CD
:104EB00093042900D5BF1387F7FB63E5EE009387C2
:104EC00097FC4DBF1387F7F963E5EE00938797FAD8
:104ED00055B7FD57631FF8009307200223A0F90080
:104EE000468519EEB250225492540259F249456156
:104EF0008280630403003305A0406DD6630408007C
:104F00009385F4FF0CC2F9BF93070003A1F2A146F9
:104F100035BF13070003E38FE7F0A94605BF93876A
:104F200001819C43B286985309E717B7FF1F130707
:104F300067152E86AA853E856FF03FEA011122CCC7
:104F400026CA4AC806CE4EC6AA842E89328401C516
:104F50001C4D91E32529978700009387678063198B
:104F6000F406C0401C4C1CC48357C400A18BC9C3A9
:104F70001C48BDCF1C4808409379F90F1379F90FED
:104F80001D8D5C486346F500A2852685F92C2DE52C
:104F90001C440505FD171CC41C401387170018C0CE
:104FA000238037015C486389A7008357C400858B41
:104FB00081CBA9476316F900A28526857D240DEDD6
:104FC000F24062444A85D2444249B2490561828036
:104FD000977700009387C77A6314F400804459B729
:104FE000977700009387C775E31EF4F6C0449DBF12
:104FF000A285268525203DDD7D59D9B791CD930722
:10500000F00F63F7C7009307A0081CC17D5582808D
:105010002380C50005458280014582804111938728
:10502000018126C2844322C44AC006C62A892E842E
:1050300089C49C4C99E32685912E9777000093872D
:105040002772631CF402C0400317C40093170701C2
:10505000C18393F68700BDEE93F607019DEEA54749
:105060002320F900136707042316E4007D55B2409E
:10507000224492440249410182809777000093873D
:1050800027706314F4008044C1B7977700009387BA
:10509000276BE31BF4FAC04445BF918B95C74C586E
:1050A00091C9930744046385F5004A85EFE09FCDDD
:1050B000232A04028357C4002322040093F7B7FD78
:1050C0002316F4001C481CC08357C40093E78700D4
:1050D0002316F4001C4889EF8357C40013070020EF
:1050E00093F707286386E700A2854A85EF00903B87
:1050F0008357C40013F7170005C75C482324040036
:10510000B307F0401CCC1C480145B5F38317C4001D
:1051100013F7070829DF93E707042316F400B9B74C
:10512000898B014791E3584818C4F1BF83D7C50064
:10513000011122CC26CA06CE4AC84EC613F78700F4
:10514000AA842E8479EFD841634DE000B841634AC8
:10515000E0000145F2406244D2444249B24905614F
:10516000828058547DD703A904009396370123A069
:10517000040063DE060670488357C400918B99C70C
:105180005C401D8E5C5899C33C401D8E5C540C5095
:10519000814626858297FD570357C400631DF5009D
:1051A0009440F54763E9D706B70740208507B3D792
:1051B000D700858BADC31C48232204001CC0931765
:1051C000370163D80700FD576314F5009C4091E355
:1051D00068C84C5823A02401ADDD930744046385BF
:1051E000F5002685EFE01FBA232A04029DB70C5074
:1051F0000146854626850297FD572A86E31EF5F669
:105200009C40BDDB75476385E70059476394E7041D
:1052100023A024013DBF136707042316E4007D5536
:1052200015BF83A90501E38609F203A905008D8B4B
:1052300023A0350133093941014791E3D84918C406
:10524000E35920F11C540C50CA864E86268582975D
:105250006349A0008357C40093E707042316F400B2
:105260007DBFAA993309A940E1BF9C49A5C301119B
:1052700022CC06CE2A8411C51C4D81E72EC63922C8
:10528000B245977700009387A74D639CF5004C408B
:105290008397C5009DC722856244F24005616FF087
:1052A000FFE8977700009387A74D6394F5000C44BF
:1052B000C5B7977700009387A748E39BF5FC4C445C
:1052C000C1BFF24062440145056182800145828090
:1052D000411122C406C62A842316B5002317C5002F
:1052E0002320050023220500232405002322050690
:1052F00023280500232A0500232C0500214681458B
:105300001305C505EFA0DFEF97270000938707E39C
:105310005CD097270000938767E51CD4972700008F
:105320009387A7E95CD497270000938767EC00D0A8
:105330001CD8B24022444101828097050000938529
:1053400005F399AA411126C2130680069384F5FF3E
:10535000B384C4024AC02E8922C406C6938544077A
:10536000EFE0DFAC2A8401CD2320050023222501B4
:10537000310508C4138684068145EFA07FE82285A5
:10538000B240224492440249410182801C4DA5E76B
:10539000411106C622C497070000938747FA1CD51F
:1053A000938741819C432324050423260504232855
:1053B00005046314F50085471CCD2A84352848C0B0
:1053C00022851D2808C42285052848C44840014676
:1053D0009145EFF0FFEF08440546A545EFF05FEF7C
:1053E00048440946C945EFF0BFEE85471CCCB240A2
:1053F000224441018280828041119387418126C2EB
:1054000084434AC006C69C4C22C42A8981E726856B
:10541000EFF0DFF7938484048044DC40FD1763D60B
:1054200007009C40B9CF8440C5BF0317C40039E7CB
:10543000C1778507232204062320040023220400C9
:10544000232404005CC423280400232A0400232C02
:105450000400214681451305C405EFA07FDA232A05
:105460000402232C0402232404042326040422859A
:10547000B2402244924402494101828013048406CE
:1054800071BF91454A85EFF0FFEB88C049FDB147F8
:105490002320F9000144E1BF797122D44AD052CCD3
:1054A00056CA5AC85EC606D626D24ECE2A8AAE8ABA
:1054B000130485040149054BFD5B09ECB2502254ED
:1054C0004A8592540259F249624AD24A424BB24B3F
:1054D00045618280044483294400FD1963D4090096
:1054E0000040E1BF83D7C400637BFB008397E400E7
:1054F00063877701A6855285829A3369A9009384D0
:105500008406E1BF10499306450113D75540B6877D
:105510006356C7020A060A07FD8936963697B9C947
:10552000130847001843130300023303B3403357F3
:10553000B700636EC80098C311C391073387D74083
:10554000098718C96394D700232A0500828083281D
:10555000080091071108B398680033E7E80023AE0C
:10556000E7FE0327C8FFE1B711078325C7FF9107AF
:1055700023AEB7FEE36AC7FED1B7930705FD93F7E5
:10558000F70F25476367F70001159377F50F3E8501
:1055900082809307F5F993F7F70F954663E5F600D8
:1055A000130595FBDDB71307F5FB1377F70F81475D
:1055B000E3EFE6FC130595FDC9BF1D71D6C2AA8AAB
:1055C000428536C63AC286CECAC8D2C4DAC05EDECA
:1055D0003E8B6ED63289AE8DA2CCA6CACEC662DC18
:1055E00066DA6AD88525832B05005E85EFE01F9F6C
:1055F000B387AB0083A60D0083C7F7FF7957158FDC
:105600003EC82A8A93872600930600033306F700D4
:10561000BE84850703C5F7FF32C4E309D5FEEFF06A
:10562000DFF5631F05105286DE852685EF10703C7E
:10563000631D0510338C440103450C00EFF0FFF3AC
:1056400063060510E2849307000303C50400630B9F
:10565000F500EFF09FF2854793391500E28C3EC4C8
:10566000268C21A08504D5B7050C03450C00EFF06E
:10567000DFF07DF95286DE856285EF10903711E903
:10568000639C0C00529CE28C03450C00EFF0FFEE93
:105690005DE9014463850C0033848C410A0483472F
:1056A0000C00130700056387E70013060007E28C70
:1056B0006390C70683471C001307B002638BE7089B
:1056C0001307D002638BE708930C1C00014D03C540
:1056D0000C00EFF09FEA9307F5FF93F7F70FE14512
:1056E00063E4F508930705FF850C03C50C003ECA6B
:1056F000EFF0BFE89305F5FF93F5F50F6148D2474A
:10570000A948637EB80463040D00B307F0403E94DB
:1057100023A09D01638C0904A247814491E399442D
:10572000F640664426854649D644B649264A964AF6
:10573000064BF25B625CD25C425DB25D25618280A9
:105740008149814C31BF050C81B7268C01448549C4
:10575000B9B7014D930C2C009DBF054DE5BFB38734
:105760001703AA97C11749B7E28C5DB7B3079C40EE
:10577000FD1781451D476344F70A5685F923054601
:1057800093094501B3074641AA8D4E8D8148814C4E
:105790003ECA63E9840913054D0033053541098587
:1057A00023209D0123A8AD00931455006685EF00CA
:1057B000A07A832B0900898C63D89B0CB384744135
:1057C000A6856E85EF00D06C2A8A05C91386F4FF82
:1057D000935656408A06CE96944205473317C70023
:1057E000758F054A19CB6359CA009385E4FF6E850E
:1057F000EF00106A0D4A11E1094AA6856E85EFF0A7
:105800007FD0269403278900635F8708EE8556853D
:10581000D92392479304300A23A0070011B78505C6
:10582000858791BF9307FCFF3EC40346FCFFC24738
:105830006309F602930700026397F80023209D0195
:105840008148110D814C0345FCFF46CCEFF0FFD29F
:10585000E2483D89224333151501B3ECAC009108B1
:1058600015A052479307FCFF3383E700E36493FCE2
:105870001A855286DE8546CE1ACCEF109017624309
:10588000F2484DF91A8C31B7014AE3DD74F7B3845D
:105890009B40EE8526865685EF00F018AA8D058C74
:1058A0009309450185B7032749006355E40E330486
:1058B0008740634574070327C9008946630AD704F4
:1058C0008D46630AD7048546631BD70263998B0212
:1058D0006391EB0203274900B2479304200698C363
:1058E0000547924723A8ED0023A0E90023A0B701B4
:1058F00005BD9385FBFF6E85EF00905961FDEE8538
:105900005685D12992479304000523A0070009BDBD
:10591000E3170BFEC1B7E31F0BFAD5B79304F4FFEF
:1059200063180A0691C4A6856E85EF0070562A8A10
:1059300013D754400A074E9718438545B3959500F1
:10594000F98D99C1136A2A00A2856E85B38B8B40AD
:10595000EFF05FBB032449008944630B0A08032767
:10596000C9008946630AD7028D46630AD702854675
:10597000631DD70013772A0009CB03A70900336AF8
:10598000EA00137A1A00631E0A0093E404018DA052
:10599000054A79BF8544D1B70547330B6741E30614
:1059A0000BFE83A90D0113874D01FD55139A2900A4
:1059B0003306470114436383B604850614C389463E
:1059C00013874D016394D40883260900FD16639F55
:1059D000760193D65B408A06369718438546B39B7B
:1059E0007601B3FBEB0063830B00854493E4040270
:1059F000924723A0B701B24780C31DB31107232EDE
:105A000007FEE369C7FA03A78D0063C5E90283A512
:105A10004D0056858505152E03A60D019385CD00F5
:105A20002A8B09060A063105EFE06FAAEE85568536
:105A30005D26DA8D03A70D019306170011070A07EB
:105A400023A8DD006E97854654C395BF83A60D013C
:105A500063DCD90085456E85EFF0DFAA0327890056
:105A60000504E35487F85DB393FBFB018544E38FA2
:105A70000BF652970325C7FFC52113070002B30B8E
:105A80007741E34975FD9DB7A1473386C7400A06B4
:105A900093060002918E5C41184111053398D7009E
:105AA00033670701B3D7C700232EE5FE1CC1E364AB
:105AB000B5FE82801C416548850503C6F5FF850754
:105AC00001E61CC10545828003C707009306F7FB6A
:105AD00093F6F60F6364D80013070702E30EC7FCC2
