:100000006F00203F130000001300000013000000E9
:100010001300000013000000130000001300000094
:100020001300000013000000130000001300000084
:08003000130000007300100032
:1000380000000000000000000002000004020000B0
:10004800000000003803000000000000000000006D
:100058003A0300003C03000000000000000000001C
:100068003E03000000000000400300000000000004
:100078004203000044030000460300004803000058
:100088004A0300004C0300004E0300005003000028
:1000980052030000540300005603000058030000F8
:1000A8005A0300005C0300005E03000060030000C8
:1000B8006203000064030000660300006803000098
:1000C8006A0300006C0300006E0300007003000068
:1000D8007203000074030000760300007803000038
:1000E8007A0300007C0300007E0300008003000008
:1000F80082030000840300008603000088030000D8
:100108008A0300008C030000DA0900009003000055
:100118009203000094030000960300009803000077
:100128009A0300009C0300009E030000A003000047
:10013800A2030000A4030000A6030000A803000017
:10014800AA030000AC030000AE030000B0030000E7
:10015800B2030000B4030000B6030000B8030000B7
:10016800BA030000BC030000BE030000C003000087
:10017800C2030000C4030000C6030000C803000057
:10018800CA030000CC030000CE030000D003000027
:10019800D2030000D4030000D6030000D8030000F7
:1001A800DA030000DC030000DE030000E0030000C7
:1001B800E2030000E4030000E6030000E803000097
:1001C800EA030000EC030000EE030000F003000067
:1001D8000000000000000000000000000000000017
:1001E8000000000000000000000000000000000007
:0801F8000000000000000000FF
:100200007300203001A04111094506C60D2EEF00F4
:100210003006716513050520EF00100BF925130555
:100220004006EF009007B715000037450040938562
:1002300005B2130505408D2701A0B717024098436A
:10024000B706FFF841111367170098C3D843370664
:100250000200758FD8C39843B706F7FEFD16758F59
:1002600098C39843B706FCFFFD16758F98C3D84313
:10027000B70681FFFD16758FD8C39843B70600EC0B
:10028000FD16758F98C33707FF0098C723A607028E
:1002900002C402C69843C166558F98C3B716024080
:1002A00005679C42F18F3EC6A24785073EC4B24710
:1002B00081E7A247E397E7FEB71702409C431397F5
:1002C000E7006357070685473EC632478547631FE9
:1002D000F704B7170240D843B706C1FFFD16D8C3CD
:1002E000D843D8C3D84313670740D8C3D843758FC2
:1002F000D8C3D843B7061D00558FD8C39843B70657
:100300000001558F98C3984393166700E3DD06FEFE
:10031000D843B7160240719BD8C3D8431367270050
:10032000D8C32147DC42B18BE39EE7FE41018280C6
:1003300002C661BF01A001A001A001A001A001A00F
:1003400001A001A001A001A001A001A001A001A0A5
:1003500001A001A001A001A001A001A001A001A095
:1003600001A001A001A001A001A001A001A001A085
:1003700001A001A001A001A001A001A001A001A075
:1003800001A001A001A001A001A001A001A001A065
:1003900001A001A001A001A001A001A001A001A055
:1003A00001A001A001A001A001A001A001A001A045
:1003B00001A001A001A001A001A001A001A001A035
:1003C00001A001A001A001A001A001A001A001A025
:1003D00001A001A001A001A001A001A001A001A015
:1003E00001A001A001A001A001A001A001A001A005
:1003F00001A0970100209381E141178100201301A2
:1004000061C01705000013056573970500209385EB
:1004100065BF1386818063FAC5008322050023A08F
:10042000550011059105E3EAC5FE1385818093858A
:1004300041916377B500232005001105E36DB5FEFA
:10044000FD42739002BCFD4273904280B76200008F
:100450009382820873A0023097020000938202BE4A
:1004600093E2320073905230EFF03FDD97020000CC
:100470009382A2D973901234730020309C4513F7F5
:10048000070113F8F70001C7D8413368E80083D5A6
:10049000050013F7F50F39C318418146854E3D4FCE
:1004A000930F800293028004214E3396DE00B3F84E
:1004B000C500631116039398260033131F011343DD
:1004C000F3FF3377E300B318180133E7E800639FC5
:1004D000F70550C98506E39AC6FD18C11307F00F4A
:1004E0006375B70454412146854E3D4F930F8002FA
:1004F00093028004414EB398CE0033F71501639206
:10050000E8021317260001173313EF001343F3FF1C
:10051000B376D3003317E800D98E639DF701232A01
:1005200015010506E319C6FD54C18280E39457FA0C
:1005300010C94DB7E39757FE23281501DDB723A453
:10054000A18082809387818094430347050089E6D8
:1005500083472500920731A8944305466391C6045A
:10056000834725000346150092076314D60093E7DE
:1005700007F8B7E600E093F7F70FBA962380F64046
:100580008546935757003397E6005441ADC693878D
:1005900007048A07B7E600E0B69798C382808C43C9
:1005A00089466393D502834615008347250063651A
:1005B000D6008A06B69779BF9386E6038A06B69771
:1005C00093F7F70F920765B790438D46631ED600E9
:1005D00083461500834725006364D6008606D9BF8D
:1005E0009386C6078606E1BF94439147E39AF6F8DF
:1005F0008347150085B79387070661BF3717024009
:100600005C439146B18B6385D700A1466386D706CC
:10061000B7177A00938707201CC1371602405C4247
:1006200037070020130707009183BD8BBA9783C655
:1006300007001C41B3D7D7005CC15442A1829D8AF8
:10064000BA9683C60600B3D6D70014C55442AD820D
:100650009D8A369703470700B3D7E7005CC5584229
:100660003983937637001387418036970347070015
:10067000B3D7E7021CC982805C4354434167C983F6
:10068000F98E37F7FF1F0327C770BD8B8907131635
:10069000170163480600454601476392C702C947F0
:1006A00039A809476389E7023D476388E702414764
:1006B0006388E702454601476393C700C14785E663
:1006C000B746024083A60680C18A8DC6B7167A0057
:1006D0009386062025A00147D9B70547B547C5B77A
:1006E0000147BD47E9BFB7160240D4421396E60062
:1006F000E35E06FCB7163D0093860690B387D702EB
:100700001CC101DF1C41858301BF99C53717024019
:100710001C4F5D8D08CF8280B7170240984F13455C
:10072000F5FF798D88CF828099C5371702405C4FDD
:100730005D8D48CF8280B7170240D84F1345F5FF33
:10074000798DC8CF828083560501F577FD17F58F27
:1007500083D66500397122DC06DED58F03D7C5004C
:100760002318F5008356C500FD779387379FF58FD3
:1007700083D645002A842EC6D58F83D68500D58F93
:1007800083D6A500D58F2316F50083574501C207F0
:10079000C18393F7F7CFD98F231AF5006808B93DC5
:1007A000B747014093870780B245631EF404A25700
:1007B0008356C4006547B387E702C206C1869841E5
:1007C00063D5060406070356C4004206B3D7E70202
:1007D000130740064186B3D6E702B3F7E702920655
:1007E000635706028E0793872703B3D7E70213F7F1
:1007F0007700B367D700C207C1832314F400F25017
:10080000625421618280925765B70A076DBF9207D3
:1008100093872703B3D7E702BD8BD58FE9BF81C983
:100820008357C5000967D98F2316F50082800357C7
:10083000C500F977FD17F98FC5BF13F7F50F854789
:100840001583B395B7006319F7009307C500984364
:1008500001CED98D8CC38280894693074501E31868
:10086000D7FE93070501E5B793C5F5FFF98DDDB711
:1008700093F5F51F2312B5008280035545001375CB
:10088000F51F8280035505006D8D3335A0008280F1
:1008900013F7F50F85461583B397B6006313D70298
:1008A0000357C500F98F03570500014542074183EF
:1008B00081CB0545A181B315B5006D8F3335E000BF
:1008C000828089466315D70003570501E1BF0357AE
:1008D0004501C9BFA1818547B397B70093C7F7FF0B
:1008E000C207C1832310F500828039718545114507
:1008F00006DE22DC193D8545370502003535914776
:10090000231AF100371401408D473ECC4C08E147D3
:10091000130504803ECE9D36A147231AF1004C08F2
:100920009147130504803ECE913EF1673744004065
:10093000938707200C103ED013050440B7070C0026
:100940003ED402D223160102FD3B93076013231607
:10095000F10085472307F100680085473EC8DD3672
:1009600013050440054693055052C13D130504404C
:1009700085457535F250625421618280411122C44F
:1009800006C62A84F535930500082285E53D65DD18
:10099000B240224441018280411122C426C24AC091
:1009A00006C6AA842E890144B307890083C50700BF
:1009B00026850504E1371374F40FB3078900838794
:1009C0000700FDF39305000426856D3D65DDB2400B
:1009D00022449244024941018280411122C6374497
:1009E0000040930550521305044026C44AC24EC02D
:1009F00045359384C1800DC59305505213050440BD
:100A0000D13D13050440953D03C70400B7070020FE
:100A100093874702BA9705072380A7002380E40045
:100A200037090020B7490040A38601801309490215
:100A30001384D180938909408347040003C70400CD
:100A400063EDE700230004003244238004001249D0
:100A5000A2448249410173002030CA9783C5070030
:100A60004E85293F8347040085072300F400E9B73A
:100A7000B707002083A7070137177A00130707205D
:100A8000B3D7E70293F7F70F2388F1801307803E6F
:100A9000B387E7022397F1808280B7F700E0D8435D
:100AA0008146799BD8C303D7E1803306A70290CB58
:100AB000D4CB98431367170398C3D843058B75DFCE
:100AC0009843799B98C38280797122D42A841165D6
:100AD0008545110506D61539930700202312F1002C
:100AE000371501408D473EC44C00E1471305058092
:100AF0003EC6693222C837440140B70708000C08D7
:100B0000130504803ECC02CA231E01002D391305B3
:100B1000048085452933B25022544561828000000B
:100B2000546869732069732061207465737420644C
:080B30006174612E0A0000004F
:100B3800000000000102030401020304060708097B
:080B480000A24A0402040608A1
:00000001FF
